S01700004763634170706C69636174696F6E312E737265635B
S11300000C94710E0C948D0E0C948D0E0C948D0E1C
S11300100C948D0E0C948D0E0C948D0E0C948D0EF0
S11300200C948D0E0C948D0E0C948D0E0C948D0EE0
S11300300C948D0E0C948D0E0C948D0E0C948D0ED0
S11300400C948D0E0C948D0E0C948D0E0C948D0EC0
S11300500C948D0E0C948D0E0C948D0E0C948D0EB0
S11300600C948D0E0C948D0E0C948D0E0C948D0EA0
S1130070E90E450F450F450F450F450F450F450F39
S1130080450F450F450F450F450F450F450F450FCC
S1130090450F450F450F450F450F450F450F450FBC
S11300A0F90EFF0E050F0B0F110F170F1D0F230F66
S11300B0290F300F390F3F0F830003030405040693
S11300C0050A1400FC0DFC0D0001F303D6057D2088
S11300D0060010D6002108D218D4783011220B461D
S11300E034D5103149421100231AB932D49308256A
S11300F04289E8109208254289E81092082542892D
S11301000C002417D812D4135A542832894C2234A0
S11301104A64129984A26294012516C912D4194919
S113012074A14DC47280580E104B66143D4D0026C8
S113013019D912D49A4A8412A14448164F254291DF
S1130140843691892624920027085218D53848000D
S1130150280DD516D413A989643ACA840A290ED560
S113016014D410AA09653AC9446A002A0E7872D4D4
S11301701169231D42349116002B0C7872D413ABF1
S11301801D626235002C0834F6D39958002D0718E7
S1130190D2D438042E073318D438082F10C714D4F7
S11301A055940AA542A9502A944A013011D812D470
S11301B093D2445A843C4A44DAA83200310DD8120E
S11301C0D4930E6912B1FE76083212D812D4A289E1
S11301D02442A2585538942A8B0F013316D812D4CE
S11301E0A2892442A2582A9C03E40022512292911B
S11301F0003414D812D40E4B8734894845269149CB
S11302000E51B116003513D812D4388C75198DE4FB
S113021000B1982811C948003615D812D4A28924EF
S1130220C2885865349208394A443212003712D8C9
S113023012D4388455C552B1542C154BC5520038CC
S113024015D812D4A2892442468948461349848C7D
S113025012918C043914D812D4A28924428E12D15A
S11302608A58252811C948003A088318D4B0430D88
S11302703B0A94F6D359479B58003C0BD712D48EB3
S11302800AF5ACE7003D0A6872D438C4713C043EF8
S11302900BD714D408EBA35EC3003F11D812D4A229
S11302A089244246A9667504B10C004017D812D4BB
S11302B0A289244292E522A148281216913A4026A6
S11302C0AA00410FD812D493D2445A848C87228F27
S11302D0024216D812D4A889D42432894C22129905
S11302E0641221378909004310D812D4A289244208
S11302F0B27E9488642400440DD812D430C92442B8
S1130300FE9BC404450DD812D4388C753689753ECD
S113031004460CD812D4388C753689F50C4711D89C
S113032012D4A2892442B226234789684409480C7E
S1130330D812D410F2F150E4A300490CD812D438E6
S1130340C4C4FA6F87004A1AD912D4B3CA0172809E
S11303501C2007C80172801C209289642AD22100C3
S11303604B14D812D410B249641291A69A48378912
S11303704C22240A4C0AD812D410EB7F3E044D14AC
S1130380D812D410124BA6834542915024140991DB
S1130390A3004E12D812D410D66A26134542919067
S11303A0DC1A89024F0FD812D4A2892442FE5122AA
S11303B0929100500FD812D430C92442DE2426B1C1
S11303C0CE005112E8F2D3A2892442FE22215144E4
S11303D0B23A40005212D812D430C92442DE242644
S11303E06D12994448145317D812D4A2892442B2E6
S11303F01C2007D0017280982811C94800540BD8DA
S113040012D438C4C4FADF00550DD812D410F23F08
S11304104A44321200560FD812D410729488F4460B
S11304206415AB015712D812D410F24542915024EE
S11304301449C954240A5813D812D4101225226D11
S113044044AA94481369111205590FD812D41012F2
S113045025226D44AA58DF005A10D812D438845586
S113046095A5CA5265F121005B0AD614D43804F567
S11304701F0D5C10C714D4908AA562A9582A968AC5
S1130480A5025D0AD614D430EA3F1E025E0B483240
S1130490D593D24412A1005F0719F2D3380860073C
S11304A03456D59029610E8812D42AC9C4928390F7
S11304B05152096211D812D410EB6534920839965E
S11304C024921100630E8812D42AC9C8DA01325169
S11304D00500640ED812D4D6D344A9C851225A11A7
S11304E065108812D4A28924C243590E90892A0027
S11304F0660DD812D4A38974161AC5FA086714C8ED
S113050092D3A9CC6A129944262AC9011621A3C4FC
S113051002680DD812D410EB65349208F928690CDE
S1130520B812D413CBA1647D3B046A0EF794D3555F
S11305308751F595C626A9006B12D812D410EB4D3D
S1130540225291116B22358950006C0AD812D421A1
S1130550EB7F3B046D138812D488A81C26128A846E
S113056022A14828128A026E0C8812D4908C46125A
S1130570211F056F0E8812D4A28924428E12918CF9
S1130580047011C892D3908C461221C7924432123F
S11305906B06710EC892D39A2815394A442B621DF2
S11305A0720C8812D490904612B15E01730F8812B7
S11305B0D4B108E9003B404C945800740DB812D4EF
S11305C0122B1AC57A925100750B8812D410F2516D
S11305D0225A11760E8812D4101225226D44AA587C
S11305E00677108812D4107291502414C961229293
S11305F00078108812D4104A4432AA584A13498405
S1130600027911C892D310F251225A1113252219DA
S113061009007A098714D4B80AF57A7B0ED812D463
S1130620A48975A303C4BA03087C07D218D4F8506C
S11306307D0FD812D4A003C4BA036862DD88007E9B
S11306400B3852D5195124A4090000000008046491
S11306500744FFFF0400120813D49903E4C0C358ED
S1130660679358E743000401110813D41169071D67
S1130670C63A9BC43A1F02040220F9D0D33804E5D9
S11306800039400E288A6422994826928964229966
S113069048269203C4120004030E0813D41BCAA1F3
S11306A087B1FE6700040413D812D4A2892442B28D
S11306B0F245AC5122929100040518D812D4A289B3
S11306C02442B21C2007D0017280982811C9480026
S11306D004060DD812D438C4C4FA6F870004071076
S11306E00813D41169071D6262FDB7430004080FA3
S11306F0D812D42BEB67225122929100040919D904
S113070010D4294A8412A14428114A48124948A203
S1130710FF97888802040A1DD812D490C82432890D
S11307204C2293C824B28B4A448522A1482892883B
S11307308402040B1DD910D43804E50039400E900E
S1130740082732914C2413C94432914C24130904D0
S11307500C160813D4D5266493C824224D35916E03
S11307601299444814040D150813D49203E400911B
S113077090B792E53031D5888C02040E130813D457
S113078011C9E830211F2567CD44890500040F0EE7
S1130790F8D2D310F27F3CCCC43200041010D8122B
S11307A0D493D2445A848C87228F02041111D81214
S11307B0D4B8887536C924426E121300041217D8AF
S11307C012D4A889D42432894C2212996412213774
S11307D089090004130BD812D4388CF53F03041490
S11307E010F8D2D3A34944FAFFBF1C864401041570
S11307F00ED812D4388C753689753E0404161AD86E
S113080012D4904828128A8422A1A8D86816158A7E
S11308108422A148280A041717D812D4A289244292
S1130820A2582A9C03E40022512292910004181138
S1130830D812D410F256B21C26A61A9151000419EB
S1130840140813D411C9E830216F25CB6162AA11B1
S11308501905041A15D812D410B249641291A69A33
S11308604837894C22240A041B1AD812D42BA9C84D
S11308702432894C2293C82432894C2293C86A4476
S113088001041C15D812D410124BA6834542915072
S113089024140991A300041D0DD812D410F2F150B0
S11308A0E4A300041E10D812D4A2892442FE5122CB
S11308B0929100041F0BD812D4380CF93F0A04207B
S11308C010D812D430C92442DE2426B1CE0004212B
S11308D011D812D4A2892442B27E948864240004DC
S11308E0220CD812D438C4C4FADF0004230FD8125F
S11308F0D410F25172D64C945800042419D812D44E
S1130900135A5428128A8422A14828128A84A26283
S113091014CB00042514D812D4101225226D44AA35
S113092094481369111205042621F9D2D3104A847C
S113093012A14428114A8412A14428114A8412A104
S1130940442839C80172800004270CD812D410F24C
S1130950A3E4AC0704281DD812D4904828128A8432
S113096022A14828128A8422A14828128A84223982
S11309700C042912F9D2D390E8FFFFFF7F39C80194
S1130980728000042A10D812D42046C49A6B22FD27
S11309904F1500042B16D812D410F268A24828125E
S11309A08A8422A14828129300042C10D812D4104F
S11309B0EB6C924984BC494C00042D13D812D4A288
S11309C0892442B196B3325122929100042E1CD84C
S11309D012D4104D5428128A8422A1482E14094599
S11309E04291502414096902042F14D812D4B2C8B5
S11309F0881C2532914945269111890204300F88BB
S1130A0012D42AC9C4928390515209043114C812D1
S1130A10D40E95C47240692411729488642400042D
S1130A2032108812D430C92432C945C878900004E1
S1130A30330B8812D4388CF5190004340FA8D2D3A0
S1130A40A34944FA2F872151000435118812D4A2F6
S1130A508924C243590E90892A000436128812D47C
S1130A60904828128A8AC9A24291501404371088E7
S1130A7012D4B108C5A2B21C4094580004380E88A0
S1130A8012D410B2952C12538D28043912B812D4F2
S1130A9011C9E830215BC92231D58802043A118892
S1130AA012D410D2242251AD2652930805043B12CD
S1130AB08812D42BA9C82432894C2293C8880204F2
S1130AC03C118812D410960E1609454291108902E1
S1130AD0043D0C8812D410321E8A1C05043E0F8873
S1130AE012D4A28924428E12918C04043F0B8812E2
S1130AF0D4380CF95100044012C892D3908C461299
S1130B0021C7924432126B0604410F8812D42AC9B9
S1130B10C8DA013251050004420B8812D438C4C427
S1130B20FA06044312C892D310F251225A11132523
S1130B3022190900044417E892D3130B2D2A14092F
S1130B4045429150241415A3581B000445118812E2
S1130B50D4104A4432AA584A13498402044615A8B8
S1130B60D2D3904964129944269149641299E410AD
S1130B705604470B8812D41072949C350448148888
S1130B8012D4904828128A8422A14828128AE43078
S1130B90044910A9D2D390E8FFFF729003E4000146
S1130BA0044A128812D4984E4F32894C2293C82496
S1130BB01600044B128812D410124D1409454291A8
S1130BC050242601044C0E8812D4102B5F848C0709
S1130BD00900044D0E8812D4B108C56A65A2C40286
S1130BE0044E148812D4104D5428920B454291504F
S1130BF024A40900044F0F8812D439081925271595
S1130C00195100045016C812D49203E400399426F2
S1130C1092080F65394026AA00045114B812D41161
S1130C206907D24412E1A12C07C844150004521BE1
S1130C301893D3114B6D6215D9442493C824328977
S1130C404C2293C8C4AA4A0004530DC812D494AACF
S1130C50430F637D0604540E8812D4B108C935B11C
S1130C60A2C4020455108812D4B108E9003B404CD8
S1130C7094580004560DB812D413CBA1647D3B04E0
S1130C8004570EC812D411698791F5DB210004586A
S1130C900FF794D3558751F595C626A90004591228
S1130CA08910D4294A8412A18424D12F240A00044F
S1130CB05A138812D490C8243289ECA24291502449
S1130CC02C00045B1BD910D49103E40071550E90E1
S1130CD0CC468A12A14428114A8412A100045C1251
S1130CE0C812D494AA4365254DB59A484D221404DC
S1130CF05D14C812D49203E400394CC856B2484C6F
S1130D0035A200045E15F892D311C9E830211F25DD
S1130D10A215315122929100045F0DA8D2D310F292
S1130D20E361269601046018D812D4114984BC48A2
S1130D3028128A8422A14828128A260900046111F3
S1130D408812D4107291502414C961229200046252
S1130D5019E812D4114B6B93A0585C13A94964127F
S1130D6099442611894A00046315B812D48903C42E
S1130D70529BD82493C82432894C620104641CD841
S1130D8012D4104D5428128A4C2293C82E6A1299F8
S1130D904426915024A409000465138812D4104DEC
S1130DA05428B28B9A442691902600046617D812D0
S1130DB0D493D2445A84C4D2C122A14828128A842A
S1130DC0A2000467118812D493D24492D1C122A103
S1130DD048280A04681DD712D488854293502445B4
S1130DE03289496207498A244592224991A44832AA
S1130DF00469137732D48885429350247288A448B6
S1130E00522419046A17D812D4380C8912918C2AE6
S1130E10A5595428128A8422A128046B108812D45C
S1130E2038444432AA946651A128046C1BD712D4C6
S1130E30885862929844329A944293882545922223
S1130E404991A44832046D117732D4885862A2487B
S1130E50A4149A649164046E1B28D3D311C9A87294
S1130E60304D241112A5C239400E10AB8A4A6231AA
S1130E7000046F15E8D2D311C9A872A8454894CAD2
S1130E800162158B580C047016D812D4904828129D
S1130E908A8422A148282A36AA583700047117C820
S1130EA0D2D313CB24128A8422A14828128A8A8D91
S1130EB02A9601047212D812D4A28924428E87225F
S1130EC047894846020473118812D4A28924C24374
S1130ED0912811C94800047412D812D410D22432B3
S1130EE08948BF1159C58A0004750F8812D410D2DD
S1130EF024226D44AA5808047616F812D410C94462
S1130F0072909026914944FA8DC82A1602047714E7
S1130F10B812D410C9447290902611692352C54264
S1130F20000478200AB1D3194BA412A9442A914A87
S1130F30F84512A1482CA28A48349303E4003944AA
S1130F4006047919BAB0D39948F822895024165165
S1130F5045249AC90172801C2203047A11F8F2D341
S1130F6093D22C2A44FEA262A3CA00047B10A8F2E6
S1130F70D393D22C2A4416151B5506047C1AF81256
S1130F80D4B108E5201521170945429150241409CC
S1130F904542D12401047D18B812D4B108E51021CA
S1130FA045429150241409457298882400047E1BFC
S1130FB0F812D438884471908A908B8422A14828EE
S1130FC0128A8422A1689200047F19B812D4388846
S1130FD04471889022A14828128A8422394C4412F0
S1130FE000048013F8D2D3A2892442B27E07C80138
S1130FF074805802048111A8D2D32AC9C8DA0172B4
S1131000C01C201601048214C812D496CA24C2F14A
S11310105042118E871299540C04830936B2D53C80
S11310200C0104840A37B0D5228968020485093585
S1131030B2D590DD0004860835B2D5BB0904870B10
S113104038B2D5194A46B2010488194A91D34D8A57
S1131050C422D138241DFFFF1487A42645629120A1
S1131060000489174A91D34D0ACA4411B11CFFFFE9
S113107022968464C250340A048A2439B3D31109F1
S1131080E950A14428114A8412D9444491B44848EF
S113109092994428114A847380580900048B1BE9EF
S11310A0B2D31109E950A14428914D44142D24C907
S11310B04C229C03C44A00048C1AD910D49103C452
S11310C06439400EB02909254289502294C8442627
S11310D000048D128910D41193E580935022940852
S11310E0251700048E12D812D430C924422E12D2ED
S11310F0E422246B06048F14C892D3908C461221E8
S113110017496522A108C9CA0004900CE812D41634
S11311101FCAFACF0004910BA812D4161FCAFA0CE6
S113112004920DD812D4328975348AF50804930DCB
S11311308812D43289156F624500049412F8D2D310
S1131140388C7536C924421EC5520900049512A86C
S1131150D2D3388C954D32894C22134B45000496DA
S113116014F9D2D390E8FF93916892E8FF650E904A
S11311700304049712A9D2D390E84F369344BFCC0A
S11311800172800004981A08B3D3A2892442A25899
S11311902A9C03E4002251229251C5522100049951
S11311A013B8B2D3B108C5A23A404C9418C5522121
S11311B000049A1DF9D2D3904684129948265213FA
S11311C0C98A229948A62413098B73801C20049B86
S11311D015A9D2D310866422B56251245312CE01CC
S11311E0728000049C1CD812D410D224328924A208
S11311F0125189484C92884A4425A22611120504AA
S11312009D128812D41052429488E4451251091157
S113121005049E1AD910D491468417914CA42692A1
S1131220154532914C4926124A8402049F18D9105C
S1131230D49103E40071550E9089D424426A512458
S113124053120A04A01BD910D49846841299482634
S11312505213C98A229948A624130925420104A1DC
S1131260118910D4184A6422B562512453120A0415
S1131270A221F9D2D3104A8412A14428114A84929B
S1131280434428114A8412A1442811CE01728000DB
S113129004A318A9D2D3104A8412A1E410114A84D9
S11312A012A1443807C8010204A41DDA10D4101D89
S11312B0424291502414094542A34828128A8422A8
S11312C0A14828120204A5148812D4905C6412590F
S11312D04D2293C82432890C0004A621F9D0D3B03E
S11312E0896422994826928964228A4842929024E9
S11312F02409494292C80162090004A716A8D2D35E
S1131300A84964129984A2429150241465A9040046
S113131004A81AE9F0D3228AE50039400E90036448
S113132022114589226252B4430404A913A8D2D3DA
S1131330A249C5A2890A458522AACA010304AA149E
S113134008B3D3A2892442B27E94886454B11C2089
S11313500204AB12B8B2D32AC9C8DA013251512CF3
S113136007880004AC0EF8D2D338C4C4FACF63257E
S11313700004AD0DA8D2D338C4C47A1E2B0104AE28
S113138010D812D4101225226D44AA58DF0004AFDD
S11313900FB8B2D3101225221955AC6F0004B01245
S11313A0D812D4101225226D44AAD028D60D0004D8
S11313B0B111B8B2D3101225221955AC6814AB017F
S11313C004B21AF9D2D3104A84223591904A1653A2
S11313D089229948B13807C8010204B314A9D2D3A9
S11313E0108A14C972809828529C03E4000104B442
S11313F011FAD0D3B0C8F4FFFFED1087C82102045E
S1131400B510AAD0D3B0C8F47F3BC42172880004BD
S1131410B61FF9D2D3104A8412A14428114A841267
S1131420A1E80E9003E40039603C07C8010204B748
S113143017A9D2D3104A8412A14428BA03E400396C
S1131440600E90030404B812D812D410F225440993
S1131450496E215948AC0104B9118812D410B284E0
S11314602821C92D240B890504BA0DD812D410EBF8
S11314707C11F2A30004BB0ED712D490EA45345178
S1131480E39B0004BC1CD910D49C4A64B2896C222E
S1131490931C4272801C2007C8013215E90800041D
S11314A0BD148910D4A484441399E4109203E41065
S11314B091900204BE2109B1D39C4A64B2896C2282
S11314C0931C4272801C2007C8013215E91C2007B6
S11314D048C2120004BF19B9B0D3A484441399E4D8
S11314E0109203E41091902C0748C2120004C00D1E
S11314F0D812D438C4C4FA6F870004C11CF812D4BB
S113150011C9E830898422A148282A369A458522BF
S1131510A14828128A0204C216B812D411C9E830AC
S1131520898422A1A8982C2A1409450104C316F819
S1131530D2D3900E69129944A4C92493087994CA09
S1131540480004C412A8D2D310D2242251ED22643C
S1131550148B2A0004C51F09B3D3AB89D444329138
S11315604C2413C94432914C2413C9243389700E7A
S1131570102B0104C616B9B2D3AB89D44432914CB2
S11315802413C924C23940AC0404C70FF8D2D310C1
S1131590F2F150E4A358540104C80FA8D2D3103276
S11315A01E8A1CC5A20A0004C92109B3D3104A84A7
S11315B012A14428114A8492434428114A8412A156
S11315C0442811CE0162250004CA18B9B2D3104AC6
S11315D08412A1E410114A8412A1443807889500AA
S11315E004CB0FF8D2D310F2A3E4ACEB542C0104D7
S11315F0CC0FA8D2D31072949C55A762090004CDD5
S11316001B09B3D3104A8492D164343944F4FF28BB
S1131610114A8412E11C20560204CE14B9B2D3102C
S11316204A46934344FF51229C03C44A0004CF0B0F
S1131630D416D4A088F45F0804D013F812D411C9C6
S1131640E860294DA445483C14791404D113B81218
S1131650D411C9E8D0924C2C39081925950004D22C
S113166013F812D41169874A69222D42E2A1C8A352
S11316700004D312B812D4116987598462C941C8CD
S113168028A90404D412D812D42BD124328948A70F
S1131690C348FF890004D5158812D4994842129989
S11316A04446A24964125144320104D612F812D4B9
S11316B011C9E8B0C358B349ACF3210004D714B836
S11316C012D411C9E8509A48223C94E50099A80222
S11316D004D813D812D4A2892442B1F2A1C8281183
S11316E069230104D9118812D429C9E400F1A1287D
S11316F011C9480004DA16F812D4116907D2441249
S1131700A1587C28324A44DA480004DB14B812D4C5
S113171011698795647280F850948864240004DC0D
S11317201BF812D411690749241409454251B1D157
S11317302C2A1409454291501404DD15B812D41111
S113174069074924140945C56451A148280A04DEDF
S113175019F812D4116907D2441221512A9C03E4C6
S11317600022512292910004DF13B812D411698728
S113177059846219750E204A2C0004E016D812D43C
S11317803884A562A9900E9003C444A24424230182
S113179004E116D892D33884A562A9900E9003C4AC
S11317A044A24424230104E213F812D438C421428D
S11317B0DE4A96C3C45423320A04E311A812D4386F
S11317C0C42142B6924562AA110504E413F812D466
S11317D011690709B9952C8789A946641404E51190
S11317E0B812D411690709D94A1689A9461404E61E
S11317F013F812D4116907D24412217F9488642407
S11318000004E712B812D4116907D244122147899F
S113181048460204E812D812D4A28924428E8722B0
S1131820478948460204E9118812D4A28924C24394
S1131830912811C9480004EA15F812D4116907D295
S1131840441221E3A1C8512292910004EB14B8126E
S1131850D4116907D24412E1A14894886424000495
S1131860EC16F812D4116907D24412A158E5AC4C15
S1131870948864240004ED12B812D4116987598441
S11318806291594C94580004EE12F812D438C421D1
S1131890423E4ACE9A89120B0004EF14E892D338E0
S11318A0C421423E4A442B62A24424230104F01280
S11318B008F3D311690709F928396B264A2C000467
S11318C0F114F892D311690709F92811AD88891226
S11318D0918C0404F2130813D45211C941423E4AB4
S11318E0CE9A89120B0004F315F892D35211C94110
S11318F0423E4A442B62A24424230104F40FF8120A
S1131900D411690709F92839EB0104F50EB812D48A
S113191011690709394ACE1A04F60DF8D2D3388C66
S1131920F59FC7AA0004F70CA8D2D3388CF53C560F
S11319300504F817F812D4116907097934512414ED
S1131940094542915024260104F915B812D41169AD
S1131950070989268A8422A1482812930004FA1DC3
S1131960F9D0D3B3C90172801C200748AD72801C22
S11319702007C80172801C20A40204FB14A9D0D340
S1131980B3C9017280F42807C8017280900A04FC6C
S113199017F8D2D3101225226D44AA944813691162
S11319A012C5A20A0004FD14A8D2D3104A4432AAD4
S11319B0584A1349846251050004FE15D812D41004
S11319C01225226D44D22144A489B408890204FF5B
S11319D0128812D4104A4432AAEC10A2892442017B
S11319E005000FD812D4D6C92223F22891890C05F8
S11319F0010FD812D4D6D344A9C851225A110502D2
S1131A001BD910D49403E40039404A94C844129278
S1131A108424214948129D2C0005031DD910D49417
S1131A2003E40039400E90468435918424214948CA
S1131A3012494524990005041BD910D4994A8422DB
S1131A4039400E104B674A42895022940825D20926
S1131A50000505138910D4218AE400E91CA2281189
S1131A604AA4130005061D09B1D3228A142542395C
S1131A70402C9D43E41039400E9003E4803940AC7F
S1131A8004050716B9B0D33109E500591D2087C8EC
S1131A900172C01C205602050817D910D4294A84A3
S1131AA012A14428114A8412FDBF546E1300050983
S1131AB0108910D4294A8412A144FF853601050AED
S1131AC01DD812D490C82432894C2293C824B20A57
S1131AD04542915024140945429A00050B1488127A
S1131AE0D490C8243289AC42915024140969020567
S1131AF00C12D812D4A2892442B22623478948461C
S1131B0002050D118812D4A2892442B2C82811C931
S1131B104800050E16D812D438C4C47A9149641208
S1131B209944269149841300050F128812D438C4AD
S1131B30C42A32894C2293082700051016D812D4DF
S1131B40A289244276801C30948A854489484602BE
S1131B500511108812D4B108E9809A542C945800C5
S1131B6005121CF8D2D32BA9C82432894C2293C85D
S1131B702432894C2293C86A44B1A802051315A8DB
S1131B80D2D32BA9C82432894C2293C88862510528
S1131B9000051412D910D4B0E8FF9F4612FD978AAD
S1131BA08424110515128910D4B0E84F23D148229A
S1131BB0A948481201051617D912D4A05144240982
S1131BC0494292902812124922E5550005171BC973
S1131BD092D390882A12928444115144928A842286
S1131BE0A203E40039400E051812D812D4B228E931
S1131BF06F12A1454D22D213010519138812D4B1D5
S1131C00A8502487094D229348481300051A13E865
S1131C10F2D3A2892442FE22215144B23A40000563
S1131C201B0FC892D39A2815394A442B621D051CF0
S1131C3013D812D410F245429150241449C95424A3
S1131C400A051D118812D4107291502414C96122FE
S1131C509200051E18D812D410922234894C229274
S1131C608C4435916E1299444814051F128812D47D
S1131C7010456812D1A46413A949840205201CF9F3
S1131C80D0D39B1225428950229408252489FE4BE7
S1131C90454292C801B20A00052114A9D0D39B126F
S1131CA025420949A25F48123940560105221EF80F
S1131CB0D2D390C82432894C2293C824B28B0A45CB
S1131CC042915024140945595401052316A8D2D32E
S1131CD090C8243289ECA242915024146551050025
S1131CE0000011241FBECFEFD4E0DEBFCDBF11E052
S1131CF0A0E0B1E0EEE4F4E302C005900D92A43458
S1131D00B107D9F723E0A4E4B1E001C01D92AB3AD6
S1131D10B207E1F7F1D10C94251A0C9400006A3251
S1131D2051F018F4693269F03FC06B3281F06C32C3
S1131D30D9F581E0089550E014161506DCF081E031
S1131D40089550E0141615060CF181E00895242F2F
S1131D5030E0A4E6B0E00E940F1A24EF31E040E046
S1131D6050E00E94E719233208F5822F0197F1F71A
S1131D7081E0089580E090E02AE12A95F1F700C01F
S1131D80019684179507C1F781E0089580E090E0FB
S1131D90EFECF7E03197F1F700C0000001968417EB
S1131DA09507B1F781E0089580E0089581E00895F2
S1131DB00F931F93CF93DF93D901062F10E0F801FF
S1131DC0B897E432F10508F060C0E85CFF4F0C946A
S1131DD0091AD59AD49AD39AD29ABC9ABB9ABA9A27
S1131DE0B99AD79AB89AD69AD19AD09AD99ADE9AA9
S1131DF053C0442311F0DD9A4FC0DD984DC04423F5
S1131E0011F0DC9A49C0DC9847C0442311F0DB9AF6
S1131E1043C0DB9841C0442311F0DA9A3DC0DA98FC
S1131E203BC0442311F0C49A37C0C49835C044233E
S1131E3011F0C39A31C0C3982FC0442311F0C29A41
S1131E402BC0C29829C0442311F0C19A25C0C1985F
S1131E5023C0DF9A442311F0D99A1EC0D9981CC01C
S1131E60DF98442319F0D99AD99A16C0D998D998E9
S1131E7013C0442311F0C09A0FC0C0980DC044236E
S1131E8011F0DE9A09C0DE9807C09D01EC0147DF1E
S1131E90811102C081E08A8F81E0DF91CF911F918F
S1131EA00F91089528ED3EE045E157E16EE071E0C1
S1131EB085E493E098D185E493E00E94A21860E061
S1131EC085E493E00C94AD18089568EB70E085E424
S1131ED093E052D585E493E061D120E031E04FE115
S1131EE066E085E493E0F6D485E493E06DC108955B
S1131EF0CF93DF931F92CDB7DEB7898385E493E058
S1131F004DD19E012F5F3F4F45E166E085E493E0AC
S1131F10E1D485E493E058D10F90DF91CF910895F7
S1131F208F9A8E9A8D9A979A969A959AA098A19834
S1131F30A298A398A89AA99AAA9AAB9A319A309A85
S1131F408A9A8B9A8C9A949AADDFBFCF0895979A08
S1131F50969A9598AFE1BEE41197F1F700C000009E
S1131F6021E030E09B9B02C020E030E0220F331FD1
S1131F7061E070E09A9B02C060E070E0262B372B92
S1131F80220F331F61E070E0999B02C060E070E0B3
S1131F90622B732B660F771F23B331E03227E32FB5
S1131FA0E170F0E06E2B7F2B660F771F979A96985F
S1131FB0959AEFE1FEE43197F1F700C0000021E0CB
S1131FC030E09B9B02C020E030E0622B732B660F55
S1131FD0771F21E030E09A9B02C020E030E0622BC2
S1131FE0732B660F771F21E030E0999B02C020E03D
S1131FF030E0262B372B220F331F73B361E06727A2
S1132000862F817090E0282B392B220F331F97984D
S1132010969A959A8FE19EE40197F1F700C000002B
S113202081E090E09B9B02C080E090E0282B392B5C
S1132030220F331F81E090E09A9B02C080E090E081
S1132040282B392B220F331F81E090E0999B02C08B
S113205080E090E0822B932B880F991F33B321E00B
S11320602327422F417050E0842B952B8032910519
S113207089F180F48430910539F130F4813091058F
S1132080C9F10297F9F034C088309105F9F040970E
S1132090F9F02EC08115A1E09A0711F138F48034CB
S11320A09105D1F080389105C9F022C08115E4E092
S11320B09E07D1F08115F8E09F07C1F08115924089
S11320C0B9F410C082E3089583E308958DE408957C
S11320D084E3089585E3089586E3089583E40895E9
S11320E087E3089588E3089589E3089580E30895D4
S11320F080E0089581E3089513DF399A28DF811180
S1132100F7DE299AFBCFAF92BF92CF92DF92EF9284
S1132110FF920F931F93CF93DF937C01DC0195967D
S1132120BC9095979696DC919697ED91FC91A18839
S1132130CD2FC12CD12CD701ED91FC911197208981
S113214093960D911C919497422F50E0440F551F84
S1132150440F551F440F551F4C9DC0014D9D900DBC
S11321605C9D900D1124080F191F4C2F60E0C701CE
S1132170BBD7CF5F8C2F8D1B8B1528F4BFEFCB1AE9
S1132180DB0ACA15C0F2DF91CF911F910F91FF9026
S1132190EF90DF90CF90BF90AF900895FC01A081A5
S11321A0B18150969C9145A1949FA0011124440FA4
S11321B0551F440F551F440F551F60E070E083A165
S11321C094A10C941E1A0895CF93DF93EC019BDF26
S11321D0CE01CED7DF91CF91089524E0FC01208376
S11321E084E491E00895CF92DF92EF92FF920F93EF
S11321F01F93CF93DF931F92CDB7DEB77C016B01A2
S113220089019A014FEF57E163EC78E10E94C31909
S1132210CE010196E2DF860128E735E14981BC0160
S1132220C70159D50F90DF91CF911F910F91FF9066
S1132230EF90DF90CF900895FC01E60FF11D84919B
S113224090E0982F88273196E4918E0F911D089580
S1132250213031F018F0223029F006C0840F08959F
S1132260860F0895841B0895861B0895213031F04C
S113227018F0223029F006C0860F0895841B0895B3
S1132280861B0895840F089580E008950F931F938B
S1132290CF93DF93EC018B01FB018491888331960A
S11322A0E491E983FB013296E491EA83FB013396DE
S11322B0E491EB83FB013496E491EC83FB013596C6
S11322C0E491ED83FB013696E491EE83FB013796AE
S11322D0E491EF83FB013896E491E887FB0139969A
S11322E0E491E987FB013A96E491EA87FB013B9686
S11322F0E491EB87FB013C96E491EC87FB013D966E
S1132300E491ED87FB013E96E491EE87FB013F9655
S1132310E491EF87FB017096E491E88B61E1C801D9
S11323208BDF9A8B898B63E1C80186DF9C8B8B8B57
S113233065E1C80181DF9E8B8D8BDF91CF911F9169
S11323400F910895DC0118969C911897ED91FC91DA
S11323501197249130E0092E02C0359527950A94EF
S1132360E2F7892F860F883010F4E22F0FC03196E0
S11323701196FC93EE93E491F0E038E0391B02C02F
S1132380EE0FFF1F3A95E2F7E22B885018968C93D4
S113239081E090E002C0880F991F6A95E2F78150AE
S11323A08E2308950F931F93CF93DF93EC018C0139
S11323B0065C1F4F7BAF6AAFFC01EE5BFF4F1082E0
S11323C039966081C801BEDFFE01E05CFF4F808367
S11323D03C966081C801B6DFFE01EF5BFF4F80834E
S11323E0B3968081B0978083CB5BDF4F91E08111FE
S11323F090E09883DF91CF911F910F910895CF932F
S1132400C62FA0DFC15021E030E002C0220F331FED
S1132410CA95E2F7821BCF9108952F923F924F9273
S11324205F926F927F928F929F92AF92BF92CF9260
S1132430DF92EF92FF920F931F93CF93DF93CDB769
S1132440DEB728970FB6F894DEBF0FBECDBF7C0170
S11324506887342EFC0176AC17AD5C01F0E4AF0E56
S1132460B11C6C0186E4C80ED11C470193E4890EAB
S1132470911CF701EC59FF4FFA83E983C7018B5B89
S11324809F4F9E838D83B097FC83EB83F501F0818E
S1132490F719FF835884F51508F45F2EF70165AC2E
S11324A0F6010081212E202F412F672DF70184ADE5
S11324B0DDDE482E202F412F672D862DC9DE3320E7
S11324C061F0EB81FC819081E981FA819083252D73
S11324D0482F642DC70170D20FC0F401908191116F
S11324E00BC0ED81FE819081E981FA819083252DD5
S11324F0482F642DC70160D2F8858F81F81728F022
S1132500F81BF8871F5F712CC1CF8885870DF701F1
S113251086AF27AE28960FB6F894DEBF0FBECDBFA8
S1132520DF91CF911F910F91FF90EF90DF90CF90AB
S1132530BF90AF909F908F907F906F905F904F90DF
S11325403F902F9008958F929F92AF92BF92CF9217
S1132550DF92EF92FF920F931F93CF93DF93EC01DF
S11325607C018AE3E80EF11CCE011CDFFE01EF5B67
S1132570FF4F90803C966081C70141DFB82EFE0179
S1132580E25BFF4F6081C7013ADF182FFE01E15B78
S1132590FF4F6081C70133DF882EFE01E05CFF4FEF
S11325A0D0801D140CF06FC036960081190D119562
S11325B0202F412F6B2D8CAD59DEC82E8CAF202FD0
S11325C0412F6B2D8DAD44DE8DAF013059F028F0D5
S11325D0023091F00330D9F023C02D2D2C0D092D9C
S11325E0080F20C09C2D991921E02C0D0D2D080FEA
S11325F0CC24C394C90E16C091E0392F3D1921E0B3
S11326002C0D991901E0080F890FC30E0BC0292D59
S11326102C0D982F9D1901E0080F81E0890F02C04D
S1132620082F2C2D482F6C2DCE0149D2882359F127
S11326301EAE1FAE5E01E9E4AE0EB11C6E01FAE4FB
S1132640CF0ED11CF5016081C7017CDE082FF60195
S11326506081C70177DE182F40E0602FCE01DDDEF8
S113266041E0612FCE01D9DE61E0C7016BDE81114B
S1132670F3CF8FAD891534F3FE01EC59FF4FCC5BDA
S1132680DF4F88818083882DDF91CF911F910F9137
S1132690FF90EF90DF90CF90BF90AF909F908F907E
S11326A00895EF92FF920F931F93CF93DF93FC0152
S11326B0C6A9D7A967966F3F710511F008F036C017
S11326C06136710538F0E65AFF4F80819181C80F59
S11326D0D91F0AC06134710538F0FC01E85AFF4F74
S11326E080819181C80FD91FCE010196FC012491EC
S11326F0222309F458C0FE01249130E062177307C5
S113270051F406C0FE01249130E06217730719F4F6
S1132710CE01029650C0FC018491C80FD11DCE0198
S11327200196FC0124912111EDCF40C08B01FC01E5
S1132730E45AFF4F80819181C80FD91F7E0160E068
S1132740C7017ADDC80FD91F62E0C70175DDF4E067
S1132750EF0EF11C8017910790F3FE01849190E035
S1132760982F88273196E4918E2B009711F1081742
S1132770190739F403C00817190719F4CE01039691
S11327801AC0FE013296E491CE0FD11DFE01849150
S113279090E0982F88273196E4918E2B009759F773
S11327A080E090E008C080E090E005C080E090E028
S11327B002C080E090E0DF91CF911F910F91FF90D4
S11327C0EF900895EF92FF920F931F93CF93DF93AF
S11327D0EC01062F142F7901FC01EA5BFF4F808185
S11327E0813061F028F0823079F0833099F017C09D
S11327F0E8ADF9ADCE010995180F11C0E8ADF9ADFA
S1132800CE010995081B0BC0E8ADF9ADCE010995C1
S1132810181B05C0E8ADF9ADCE010995080F0CAF42
S11328201DAFB701CE013DDF009721F0BC01CE0101
S11328308ADE01C080E0DF91CF911F910F91FF905C
S1132840EF900895BF92CF92DF92EF92FF920F9391
S11328501F93CF93DF93EC01B62EC42EE22EF32EFA
S1132860BDD20E2D1F2DD12C7E0126E4E20EF11CCB
S1132870F80161918F01EA81FB81CE0109958F3FB7
S1132880FFEF9F07E1F08E3F2FEF920789F39C0142
S11328904C2D6B2DCE0196DFF7019081913041F0E4
S11328A028F0923039F0933039F007C0B80E05C0E3
S11328B0C80E03C0B81A01C0C81AD80ED9CF8D2DBE
S11328C0DF91CF911F910F91FF90EF90DF90CF9008
S11328D0BF900895E6E9F6E1DC011396FC93EE93CC
S11328E01297B0CF0895FC0126A937A9232BE9F14B
S11328F0EC5AFF4F20813C9620833B9740813C96C5
S1132900408332973081332381F1313079F4399720
S11329103081231714F43A963083FC01E95AFF4FAF
S11329202081241714F53A9620830895FC01EF5A68
S1132930FF4FE081DC01AD5ABF4F5C91022E000CC9
S1132940330B652F052E000C770B6E0F711DE7FD01
S11329507A95261737071CF41D96E50FEC93541748
S113296024F4FC01EF59FF4F5083089524E431E12E
S1132970FC0131AF20AF0895CF93DF93FC0126A96A
S113298037A92617370741F0EC0177AB66AB895BB3
S11329909F4F7CDCCE01A7DFDF91CF9108950F9389
S11329A0DC0199963C919997431B5F96ED91FC91BC
S11329B0909709950F9108950F93FC01E25AFF4FE8
S11329C03081332309F465C0222309F462C0223024
S11329D058F0023019F46F5F621B0AC0033021F40F
S11329E04F5F421B51E02DC0502F517000FD29C094
S11329F0DC01D0963C91D097431708F44AC0D19695
S1132A003C91D197431708F044C09F963C919F97FF
S1132A109E965C91260F261730F4631718F42FEF57
S1132A20230F03C0652F6317A0F5521790F56517A0
S1132A3008F4652F231708F4322F232F261B50E0A8
S1132A401EC0FC0136A5631720F137A5631708F5EE
S1132A5031A970A9240F241730F4431718F42FEF69
S1132A60230F03C0472F4317A0F4721790F447179E
S1132A7008F4472F231708F4322F232F241BDC01DB
S1132A809196ED91FC9192970480F581E02D052FAC
S1132A9009950F910895461738F4821760F081E084
S1132AA0241760F080E00895821738F481E0241739
S1132AB028F080E0089581E0089580E00895FF9271
S1132AC00F931F93CF93DF93EC01162FF22E202F39
S1132AD069A988A9E0DF882329F02F2D412F6FA54C
S1132AE08EA5D9DFDF91CF911F910F91FF900895AB
S1132AF0EF92FF920F93CF93DF937C01342F3770C3
S1132B0081E090E0032E02C0880F991F0A94E2F737
S1132B10C82FF701EC59FF4F5081523020F4513047
S1132B2021F0782F04C070E002C0782FC0E050E09C
S1132B30487FD70193968D919C919497ED91FC9148
S1132B40D089D49FF001D59FF00D1124E60FF11D1B
S1132B50E80FF91F011107C08081872B8C2781930F
S1132B602150D1F722C0A7014C595F4F9081972B78
S1132B709C2790833F5F3770215031110EC0D701DD
S1132B8097968C91E80FF11DDA018C91823040F414
S1132B90813041F0C1E071E006C0770FCC0F03C073
S1132BA0C1E001C071E02111E1CFDF91CF910F911C
S1132BB0FF90EF900895FC01A081B18185A1982F29
S1132BC0990F990F990F90A750969C915097903216
S1132BD008F09FE1990F990F990F97A346A1942F9D
S1132BE0990F990F990F91A751965C915197242FA2
S1132BF030E0280F311D652F70E06217730714F45D
S1132C00852F841B92A7880F880F880F890F83A7AD
S1132C1080EF84A754968D919C915597813F91059F
S1132C2008F484A756968C9185A70895C4CF089577
S1132C300F93CF93DF93EC010DA92BA94CA96AA99B
S1132C403EDF811104C0C25ADF4F188219C081E0EF
S1132C50FE01E25AFF4F80838AA99EA5981708F4C3
S1132C608EA78BA99FA5891708F48FA78CA998A96B
S1132C70981708F488AB8DA999A9891708F489AB2A
S1132C80DF91CF910F910895FC0116A684A587A723
S1132C9082A580AB83A581ABCF01CACF08950F93E2
S1132CA07EDE0F910895DC01D2961C92D297D496C1
S1132CB01C92D4978FEFD3968C93D397D5968C93FD
S1132CC0D5979196ED91FC9192970280F381E02D36
S1132CD0CD01099508950F931F93CF93DF93EC01D2
S1132CE01FAA1EAA38A32F8F7CA36BA34DA31EA2D9
S1132CF0FC01ED5BFF4F1082B0961082319681E0AB
S1132D008083319680831AA309A3D801ED91FC91A5
S1132D10CE010995CE01C7DFCE0128DECA5BDF4FA5
S1132D201882DF91CF911F910F910895662309F4C2
S1132D304BC06A3009F44BC0FC01218D21112BC01A
S1132D406C3F20F025E0218F61701EC0683F28F0A1
S1132D5024E0FC01218F637017C0603F28F023E05A
S1132D60FC01218F677010C0603E28F022E0FC0156
S1132D70218F6F7009C0603C28F021E0FC01218F95
S1132D806F7102C070E028C070E0FC01738B628B2D
S1132D906EEF7FEF21C04FEF420FFC01418F22897C
S1132DA033890024369527950794369527950794FB
S1132DB0322F202D6F73F901E62BBF01FC01738BB9
S1132DC0628B411107C008C06FEF7FEF05C06FEF42
S1132DD07FEF02C06EEF7FEFCB010895FC01118EEF
S1132DE00895462FDC011896ED91FC91199720E087
S1132DF030E060E2099508959A01DC011896ED919E
S1132E00FC911997462F67E109950895CF93DF93B5
S1132E101F92CDB7DEB76983AE014F5F5F4F61E0AC
S1132E20EBDF0F90DF91CF910895CF92DF92EF9275
S1132E30FF920F931F93CF93DF938C017901683135
S1132E4009F45FC030F4643109F444C0673149F0D7
S1132E5064C0693121F0603209F44FC05EC081E082
S1132E605FC0442309F45BC04150C42ED12C8FEFC2
S1132E70C81AD80AC20ED31ED701DD917D01C0E461
S1132E804D2F41706C2FC8015BD2D695CF5FC834EB
S1132E90B9F7D801ED91FC9146856CE2C80150D296
S1132EA041E060914403C8014BD248EC6CE2C80194
S1132EB047D2D801ED91FC9147856CE2C80140D21C
S1132EC040E060914403C8013BD2EC14FD04A1F638
S1132ED081E026C0DC01ED91FC91418169E430D2AE
S1132EE040E068E4C8012CD240E069E4C80128D27B
S1132EF088E48093440381E013C06AE421D281E032
S1132F000FC0411105C088E48093440381E008C0E8
S1132F1089E48093440381E003C080E001C081E040
S1132F20DF91CF911F910F91FF90EF90DF90CF90A1
S1132F300895462FDC011696ED91FC91179720E039
S1132F4030E065E1099508959A01DC011696ED914A
S1132F50FC911797462F67E109950895EF92FF9228
S1132F600F931F93CF93DF931F92CDB7DEB77C01EE
S1132F708B01D8016C916731C1F018F4653130F4DC
S1132F8036C06A31F0F06E3F49F131C0F801418139
S1132F904983D7011696ED91FC91179720E030E014
S1132FA0C70109950E5F1F4FE4CFF8018181898322
S1132FB0AE014F5F5F4F61E0C701C6DF0E5F1F4F79
S1132FC0D8CF0F5F1F4FD7011696ED91FC9117973D
S1132FD020E030E040E0C7010995CBCFF801418102
S1132FE0498369E2C701ACD10E5F1F4FC2CF0F9076
S1132FF0DF91CF911F910F91FF90EF900895EF9281
S1133000FF920F931F93CF93DF938C01C62FD42F7E
S11330107901663191F028F46431C1F0653131F001
S113302020C0673189F06A31E0F410C060E0D9DE75
S11330306D2FC801EBDE81E015C060E0D2DE6D2F9C
S1133040C801E4DE81E00EC061E0CBDED801189651
S1133050ED91FC91199797014D2F6C2FC80109959B
S113306001C080E0DF91CF911F910F91FF90EF900D
S11330700895FC0171836083FB012289FC01248B88
S11330800895CF93DF93EC01EA85FB8520E030E0DF
S113309040E068E20995EE81FF8120E030E040E005
S11330A064E1CE01099541E06BE4CE0149D1E881A8
S11330B0F981448169E2CE0143D140E06BE4CE0161
S11330C03FD1E881F981448169E2CE0139D141E0FF
S11330D06BE4CE0135D1E881F981458169E2CE0105
S11330E02FD1DF91CF9108950F931F93CF93DF9347
S11330F000D000D01F92CDB7DEB76C834D832B83F5
S11331001A830983DC011496ED91FC9115979E01B5
S11331102F5F3F4F41E06FE009950F900F900F90A4
S11331200F900F90DF91CF911F910F910895DC01C3
S11331301496ED91FC91159720E030E040E069E0B1
S113314009950895DC011496ED91FC91159720E002
S113315030E040E06AE009950895462FDC011496BA
S1133160ED91FC91159720E030E06BE0099508950E
S1133170DC011496ED91FC91159720E030E040E0DD
S113318060E109950895EF92FF920F931F93CF93F7
S1133190DF93EC0189016A3079F018F4693039F071
S11331A0C7C06B30A1F16F3009F484C0C1C064E1C1
S11331B071E05FDF81E0BDC064DFEE81FF8120E06C
S11331C030E040E068E1CE0109956BE371E0CE01A7
S11331D0C5DEEE81FF8120E030E040E069E1CE0110
S11331E00995EE81FF8120E030E041E068E1CE0105
S11331F0099562E371E0CE01B1DEEE81FF8120E04A
S113320030E041E069E1CE01099581E092C04111CD
S113321028C0EE81FF8120E030E068E109956FE28B
S113322071E0CE019BDEEE81FF8120E030E040E0E2
S113323069E1CE010995EE81FF8120E030E041E0B3
S113324068E1CE0109956FE271E0CE0187DEEE817F
S1133250FF8120E030E041E069E1CE01099581E0A1
S113326068C0EE81FF8120E030E040E068E109952C
S11332706CE271E0CE0172DEEE81FF8120E030E08D
S113328040E069E1CE010995EE81FF8120E030E064
S113329041E068E1CE0109956CE271E0CE015EDEA9
S11332A0EE81FF8120E030E041E069E1CE01099543
S11332B081E03FC0F901E080F180EE81FF8120E0F0
S11332C030E040E068E109956DE0CE0132DEF801BE
S11332D06481686BCE012DDEA70163E4CE0134DE88
S11332E0EE81FF8120E030E040E069E1CE01099504
S11332F0EE81FF8120E030E041E068E1CE010995F4
S113330060E0CE0116DEF8016481686BCE0111DE47
S1133310A7014D5B5F4F6DE3CE0116DEEE81FF81A9
S113332020E030E041E069E1CE01099581E001C08F
S113333080E0DF91CF911F910F91FF90EF9008955E
S1133340DC011A96ED91FC911B9720E030E0099581
S1133350089580E00895FC011182108289EA99E1C0
S113336095838483978386839187808793878287D5
S1133370158A108E118E14861586168617868FEF81
S1133380868B838F0895AF92BF92CF92DF92EF9294
S1133390FF920F931F93CF93DF93EC015B016A01BC
S11333A07901D9DFBD82AC82DF82CE82F986E886DC
S11333B01B870A87CE01BBDEDF91CF911F910F914E
S11333C0FF90EF90DF90CF90BF90AF900895A1E26F
S11333D01A2EAA1BBB1BFD010DC0AA1FBB1FEE1F8B
S11333E0FF1FA217B307E407F50720F0A21BB30BD6
S11333F0E40BF50B661F771F881F991F1A9469F752
S113340060957095809590959B01AC01BD01CF01AD
S11334100895EE0FFF1F0590F491E02D0994A29FEB
S1133420B001B39FC001A39F700D811D1124911D94
S1133430B29F700D811D1124911D0895DC0101C0FE
S11134406D9341505040E0F70895F894FFCF8B
S113344ED09FD180D0B8D0B2D0B5D182210016167B
S113345E44164F160001641401060C4B00093D007E
S113346E0004C8C8100400007A00200015AEFF1531
S113347EAFFF15C015A015A415A9FF15C015A115EC
S107348EA415A9FFD5
S9030000FC
