S01700004763634170706C69636174696F6E312E737265635B
S11300000C94AC070C94C9070C94C9070C94C90749
S11300100C94C9070C94C9070C94C9070C94C9071C
S11300200C94C9070C94C9070C94C9070C94C9070C
S11300300C94C9070C94C9070C94C9070C94C907FC
S11300400C94C9070C94C9070C94C9070C94C907EC
S11300500C94C9070C94C9070C94C9070C94C907DC
S11300600C94C9070C94C9070C94C9070C94C907CC
S113007025087B087B087B087B087B087B087B08BA
S11300807B087B087B087B087B087B087B087B0854
S11300907B087B087B087B087B087B087B087B0844
S11300A0330839083F0845084B08510857085D08CC
S11300B0630869086F0875085F00040305050506F1
S11300C0062122FEF919F919FC04170A970E832058
S11300D00600C430052112244F500D8983071322D2
S11300E0FACF250E222400221209C9B885196F26D9
S11300F0A242A242A242A222002339F04A7036212F
S113010041214121B999392141214121A183838888
S113011083832821B99939A13921A18383888383D1
S113012028214121B999B9993921412141214121FC
S11301302900243CEE4B4EB6E8B466073323216B0A
S1130140622684422884422884624484E266E22A45
S1130150021FC41D08DE8594C550C8049D449944FB
S1130160D504150549CC84901C509D46670725503D
S113017038C76FB7C948B3C19119C2A103C121855A
S11301805342825332825432826322925332A153B5
S113019022A24332613323324236454133A23243F1
S11301A09232449232538232548232637242538284
S11301B04253725243827123828295F13000264366
S11301C0364B703F730A6AA1E1A9D9A9D9A9D929E3
S11301D0E1A16192698A79007B087A109B039109F5
S11301E0AA9A19AAA19922A12922A1A912A9B10AFC
S11301F02932AB3A323B22099B039A8391A32B1AEF
S113020000270B03C9F884838A902C002816A84B76
S11302106EBDA8299DA912D36ACF74272617A7D922
S11302209800291AA84B6E05B13139757162726252
S11302309A4DED4A4C2B31A9299D89012A1BCCC921
S1130240352E5155322226221307436655072223A1
S113025022352253A2AA002B0F30CA8F3E717D771C
S1130260F0019DB87E072C0F45492D8D8983091A0D
S1130270254A4682002D0868C473850F062E0B8418
S113028048300D89830809002F182A3F3045ED04B2
S1130290D509AA135427A84E509DA03A417582004F
S11302A03034104B5036D283B8A1315563336424B3
S11302B083138407810781078107810781078107E9
S11302C08107810781148323643463536262437317
S11302D007A1640031100D4F5036D1A983D0FDFF22
S11302E02F8B0E0C32270F47502EBB83A1B1114127
S11302F08AC109BA09BA09BA1139DAE1D959DA3D18
S11303000B9A8B9913199438F8030133270F47502C
S11303102EBB83A1A999B911B211B219B9E1D9A51A
S11303208407B1C5C4C3149287EF0E47886A0EE6EA
S1130330AC0034281047505671E961DAA6129322B2
S11303409322833273427342635253625362437201
S113035043071F504E6F5C79200135280E4B509691
S1130360B998039A83A1032961E1603554120731D6
S11303703524632372B45B08DE3DBB1B992239A08C
S1130380B202362F0F475036BB83A1A1923192316E
S1130390124191E1B534441407213714561365070B
S11303A0810F2706270627E648C666A6880E04ABF3
S11303B000371B0D4F50863FB08C1094880C0914E5
S11303C0098C552AAB5456E9963C1503382F0F4730
S11303D0502EBB8321A2652373238322832264428C
S11303E044431663079187075113374325731473E6
S11303F0972E27E646A8680EC88E00392F0F47505F
S113040026BB8321366323641483138313830FE28F
S11304100EC22A882C884C0E22684C68698747E4EF
S113042046C846A866581DC8D9013A10044E300D76
S1130430898308794412071112003B14A5C62D15AF
S1130440110A1279D4221424333231226A003C1264
S113045050CA8F7E80E8D9CA3E25A6EED7F30001A4
S11304603D0D104992861FD0E3E8E003023E12508E
S1130470CA8F867880E97E4D4C5AD9B7D3F1003FB4
S11304801D2C47D095A3910AB109B1336783EC08B9
S1130490572A8D0D558F852421A51800404A3647CB
S11304A030C7EB03CAA23ACAB1D921F119790011B4
S11304B0A98A114523353533358C6868A68648A842
S11304C0864888882244A6682444A68624448668EC
S11304D094C89408894C5888899490C84C0FCD8E40
S11304E095111E54DF01413D3743F0DE78B079A801
S11304F079207AA07A987A10897910097A00117A89
S113050000997900196AA9692962295AB9D903D3CA
S1130510034BC9494942493A593259AAD99ACA8B13
S1130520BB0301423C3447F08607710707716365DA
S113053083638354835483548354836383637373C3
S1130540078507A353757364835493449344934476
S113055093449344835473350707220707420043A7
S1130560393447D0BE1BB1030AA9B9A2491AD2999A
S1130570D91162116209F208F2087A087A087A0835
S11305807A087A087A0872096A096A0962195AA10A
S11305905131B2C103DA3300443C36473087079106
S11305A007078273759364A363A354A354B344B33A
S11305B044B344B344B344B344B344B344B344B37F
S11305C044B344B353A354A36393737355070742CB
S11305D007077100453D3447108707260707448302
S11305E045A343A343B34263414263514163514131
S11305F053A233A407A307A333A453A253A2635162
S113060041635141C341B342B342A3438325073FEE
S113061018463B3447D08607260707448345A3433F
S1130620B342B342C34163514163514153A253A204
S113063033A407A307A343A353A263A163A163A1A4
S1130640F320F320F320F300B70794004741384721
S113065010BF8318C9830A41323B4A32DAB1E12917
S11306606AA971A97980207A80207A287A287A2840
S11306707A28CA8383E01AEAA9E9A9E929E2B159E7
S1130680BA51423A09C90312D983A02000483E391D
S1130690477087039A0392BBB3D9C1D9C1D9C1D9D1
S11306A0C1D9C1D9C1D9C1D9C1D9C18383C18383B6
S11306B0C1D9C1D9C1D9C1D9C1D9C1D9C1D9C1D966
S11306C0C1D9C1D9B1BB93039A030249102B47B0D6
S11306D0850392B3C1FDFF9F9D1C104A1E314350F8
S11306E0B603CAEAF1FDBF1A1BAA1AAA1AAA1A2249
S11306F01B92231A1B3B20BC034B3E394730870314
S11307009A8399B3BB49CAA583B383C273D263E204
S113071053E343F30033F31023F50013E716E435F2
S1130720D454C463B573B483A483959394A384A36A
S113073055A625076307024C3B3447D08603DA7B72
S1130740807990799079907990799079907990796D
S113075090799079907990799079907990E1A0E16D
S1130760A0E1A059A159A1D1A1C192838389838316
S11307700A004D5F3D43D08F83D803195BBBDA4237
S1130780D342894989418949894109C290419139B2
S113079091419139914111B29841992999419929ED
S11307A0994119229941A119A141A119A1412112EB
S11307B0A141A991A841A909A94129AB41A9B241E3
S11307C031B24131B241B1B9312BA99383199903A3
S11307D0024E493A47908783C0839952B35A415392
S11307E0415341094A4189422575823274823265F6
S11307F082425582525482524582623582723482D8
S1130800722582822482921482A21382A286B285E5
S1130810C284C264B64307A342004F38364710BFB0
S113082083E0834A32BAD12952A2E1196292F109D2
S1130830F283F07B087B087B087B087B88F383F0DA
S113084091F111629AE12152AAD13932CA83E28329
S1130850380050393447D0860771070771636583C0
S11308605493449344A343A34393449344835463CE
S11308706507760794F320F320F320F320F320F3A5
S113088020F320F320F300B70794005152F7470DEB
S1130890C7F303523A9654B444D333D424F3001325
S11308A0F40007F100F720F620F620F620F7000701
S11308B0F100145355232413342424422343146194
S11308C01263136112630DAB680FC80FE68168E40D
S11308D00166E40148E221EE41EA816600523F35B7
S11308E047F0860781070781637583738364936385
S11308F093638364836483737374539407B307A407
S11309005394639363847383738373334173334165
S11309107333417314226715074424005331314B58
S113092090A6839898030A91B912D189D1895989DB
S1130930E108DA0872DB83C903C283D96BE3EAE214
S1130940C6A6079113752312073441570054353353
S113095047B0867F34731035553646B66E4E6E4EAC
S11309606E2E701E621E621E621E621E621E621E59
S1130970621E621E621E621E621E621E62FCF480A1
S11309800800553B3A43508703AA83914BB369C18E
S113099069C169C169C169C169C169C169C169C103
S11309A069C169C169C169C169C169C169C1694173
S11309B05AD159514AE12AEA037A905300563E37F4
S11309C043F08683A10391CA2AD231D2B951414A54
S11309D041CAD041513A51BAE031612A61AAF021A9
S11309E0711A719A78881179080A79088A78987A3C
S11309F0987AA079A879A879B05800575B3F43F05A
S1130A0087839803998308B3BA1AC2C9A9C1493123
S1130A103A42313A3AC1393AC1B93241B232C929BA
S1130A208929D129892951A21022511A9921D91928
S1130A309919E11919126192A811E909A991702B68
S1130A4073B37A00BA7A003A7A083A7A88C9791084
S1130A50497918494900583E3743D0868399031988
S1130A60BBB2C241BAC93259AA6122E91279008AD9
S1130A7079087B907A207AA07A987A907B80897220
S1130A8019EA2162295A39CAB94249BA51AACA9201
S1130A9003A18301593C3743F08603A90309CBA280
S1130AA0D2315241C241425132D92A6122E91A71EA
S1130AB01279080A79087B987A187AA879A879A80B
S1130AC079A879A879A879A879A87998F303320044
S1130AD05A313147708E8303898303093A92411254
S1130AE0411AB91A39A2B8A238626A62E262D674AB
S1130AF04184318531842285229412941384073FE2
S1130B00185B0DA74F6E850329FDFFFF57075C1E79
S1130B102F4B9086E9E1E9E1E9E1E9E1E9E1E9E185
S1130B20D5C3D3C3D3C3D3C3D3C3D3035D0DA747A3
S1130B306E852BFDFFFF5707025E1CB04996366297
S1130B405A53CB91C191B9A1B1A1A9B1A1B199C194
S1130B5091C189D1015F0850400E861F106009C7FA
S1130B60C47805A9CD14612410463026C3832922F4
S1130B70A2B121B9E951BB0329A26533733373339D
S1130B8063343417110721AD2600622B2F43301E26
S1130B90D1E2FD09D9C451D10CD50CD9C8DCC8DCCB
S1130BA0C8DCC8DCC8DCC8DC08D908D54CD18CC486
S1130BB04150101100631C0C46D02DB28398A189BA
S1130BC0218AA13389C99DCE458C890CC91C84D541
S1130BD000642A30475066D9EAFD8E64EA6268A848
S1130BE0668C668C64706470647064706470647025
S1130BF0848C668C86A8EA628EA400651D0E46105D
S1130C00AEBA03A12192B11141870707B66B29231C
S1130C100625A8660EC68C0066192E43703DB3994E
S1130C20A14552336341B31B1ECCCDEEFFE1C1108D
S1130C30006734F0C62C2E929A830991A11189B1D0
S1130C40A1B1A1B1A1B1A1B1A9A1B98338094271DE
S1130C50F183B183AA8322B112C989C989C9892AB6
S1130C609A833A3300683833439026697B887988BD
S1130C7079887988798879887988798899D189C3B4
S1130C801A3AAAB9657363736373637363736373A3
S1130C906373637363736373330721070269110911
S1130CA047501D312A3279D43366FB7F73206A1989
S1130CB0E9BB4C35312A3279D43366FBFF8B201BD8
S1130CC089198911991A006B3A33439026697B88F4
S1130CD079887988798879887988798879889983ED
S1130CE0A829BA29C921D119D911E189E183580A5E
S1130CF0D219CA21C2A9C1B1B931B2399283988338
S1130D00006C0E29477025B119B3FDFFBF39106D72
S1130D101F1B42709F112A328B93BB9A0999392A5F
S1130D20AA312AAAB1FDFFFF7F7310F220006E28BA
S1130D301342709E19328B83389B39B231B275637A
S1130D4073637363736373637363736373637363EF
S1130D507333073107016F1C0E46102EC283A8A1FE
S1130D6099B191B189413F9C181B199B199A3A0872
S1130D70A402702DF0C66C1E91A28A83A0221AB21E
S1130D8019BA91C191C191C191C191C191C111B2DD
S1130D9019B299A21507412365D33B2E3D0804716E
S1130DA02CF0C62CAE9AA88308A1299A319AB9913D
S1130DB0C191C191C191C191C191C111329A31A224
S1130DC0A1A28388B192E93DAE3C0872140E42F0B0
S1130DD09D190A8B9B121A8E8466F70F0FA4007359
S1130DE0200B4AF01D0A910389A10931093109AA8E
S1130DF088AB83A083B0BB3ABAAA038B901A007461
S1130E001CEC42B0ADD850950BC90E8826F757316B
S1130E1053314332433224526725007528124290DD
S1130E209EB91123ABB9A9B9A9B9A9B9A9B9A9B9E5
S1130E30A9B9A9B9A9B9A931AA312A1AB38388AA27
S1130E409A110076231142308683188BBA193A29F5
S1130E5032292AB92939A2C819C919490AD909D97B
S1130E606AE6F200720077351842108793130B2A52
S1130E70B299B13121AAAD88C4A688E4662484025B
S1130E80674246042944462427442644278224648E
S1130E9089888988C7A6C5C4C5E40078231046702C
S1130EA086838813AA2922B9194112C90959626A89
S1130EB0DA52914119B2A1A9291A328A93037930DD
S1130EC0F2C68C86839813BA213AB139312AC129E2
S1130ED041A2D019D119510AE109E172F600F210C8
S1130EE0F200F210A232A224A223B2D6E3007A21A5
S1130EF00D46F08D830A220A2912A999289A20CA3C
S1130F004942CA49AA10B2903109AAA38303027BB9
S1130F1014C64F6E2599911921FD9B9199A121FD2C
S1130F20478B047C0922679086FF20007D14C64B02
S1130F306E05A145FA8FD68CCC08E9DF8CCC08016C
S1130F407E109048931E3A898320A38308391A009F
S1130F5000000004FFFF000011241FBECFEFD4E007
S1130F60DEBFCDBF11E0A0E0B1E0EEE7F5E202C0E4
S1130F7005900D92A233B107D9F723E0A2E3B1E0C3
S1130F8001C01D92A53AB207E1F70E94DE080C9455
S1130F90BD120C9400006A3251F018F4693269F001
S1130FA03FC06B3281F06C32D9F581E0089550E096
S1130FB014161506DCF081E0089550E014161506A9
S1130FC00CF181E00895242F30E0A4E6B0E00E9403
S1130FD0A71224EF31E040E050E00E947F12233258
S1130FE008F5822F0197F1F781E0089580E090E001
S1130FF02AE12A95F1F700C0019684179507C1F7F5
S113100081E0089580E090E0EFECF7E03197F1F7AC
S113101000C00000019684179507B1F781E0089598
S113102080E0089581E008950F931F93CF93DF9399
S1131030D901062F10E0F801B897E432F10508F061
S11310405AC0E85CFF4F0C94A112D59AD49AD39A53
S1131050D29ABC9ABB9ABA9AB99AD79AB89AD69A9B
S1131060D19AD09A50C0442311F0DD9A4CC0DD9837
S11310704AC0442311F0DC9A46C0DC9844C044239F
S113108011F0DB9A40C0DB983EC0442311F0DA9A99
S11310903AC0DA9838C0442311F0C49A34C0C498D2
S11310A032C0442311F0C39A2EC0C3982CC04423E9
S11310B011F0C29A28C0C29826C0442311F0C19AE4
S11310C022C0C19820C0442311F0D99A1CC0D998D9
S11310D01AC0442311F0DF9A16C0DF9814C04423C9
S11310E011F0C09A10C0C0980EC0442311F0DE9ACB
S11310F00AC0DE9808C09D01EC010E94CB07811153
S113110002C081E08A8F81E0DF91CF911F910F911E
S1131110089524E138E043E85FE065E071E083E3AB
S113112093E00E94820983E393E00E94271160E028
S113113083E393E00E943211089568EB70E083E347
S113114093E00E946A0D83E393E00E945B0920E030
S113115031E04FE16CE383E393E00E94170D83E3F6
S113116093E00E94710908958F9A8E9A8D9A979AA6
S1131170969A959AA098A198A298A398A89AA99AA1
S1131180AA9AAB9A319A309A8A9A8B9A8C9A949AA0
S11311900E9489080E949D0808958CE0E9E9F3E023
S11311A0DF011D928A95E9F79798969A959A979AEE
S11311B09698959A979A9698959A08950E94B40845
S11311C00E94CD082FEF81EE94E0215080409040A2
S11311D0E1F700C00000389A399A2FEF81EE94E0CD
S11311E0215080409040E1F700C000003898399ABF
S11311F02FEF81EE94E0215080409040E1F700C051
S11312000000389A39982FEF81EE94E02150804005
S11312109040E1F700C0000038983998D1CFAF92E0
S1131220BF92CF92DF92EF92FF920F931F93CF93CF
S1131230DF937C01DC019596BC9095979696DC91A2
S11312409697ED91FC91A188CD2FC12CD12CD7017B
S1131250ED91FC911197208993960D911C9194978F
S1131260422F50E0440F551F440F551F440F551F84
S11312704C9DC0014D9D900D5C9D900D1124080F57
S1131280191F4C2F60E0C7010E94F910CF5F8C2F0B
S11312908D1B8B1528F4BFEFCB1ADB0ACA15B8F2E5
S11312A0DF91CF911F910F91FF90EF90DF90CF903E
S11312B0BF90AF900895FC01A081B18150969C919C
S11312C045A1949FA0011124440F551F440F551F9D
S11312D0440F551F60E070E083A194A10E94B612F0
S11312E00895CF93DF93EC010E940F09CE010E9471
S11312F03D11DF91CF91089524E0FC01208382E326
S113130091E00895CF92DF92EF92FF920F931F9393
S1131310CF93DF931F92CDB7DEB77C016B018901B8
S11313209A0149E750E163E372E10E945912CE0148
S113133001960E947C0986012AE23EE04981BC01B3
S1131340C7010E94210F0F90DF91CF911F910F9140
S1131350FF90EF90DF90CF900895FC01E60FF11D10
S1131360849190E0982F88273196E4918E0F911DF7
S11313700895213031F018F0223029F006C0840F8E
S11313800895860F0895841B0895861B08952130BF
S113139031F018F0223029F006C0860F0895841B1E
S11313A00895861B0895840F089580E008950F938F
S11313B01F93CF93DF93EC018B01FB01849188830E
S11313C03196E491E983FB013296E491EA83FB01CF
S11313D03396E491EB83FB013496E491EC83FB01B7
S11313E03596E491ED83FB013696E491EE83FB019F
S11313F03796E491EF83FB013896E491E887FB018B
S11314003996E491E987FB013A96E491EA87FB0176
S11314103B96E491EB87FB013C96E491EC87FB015E
S11314203D96E491ED87FB013E96E491EE87FB0146
S11314303F96E491EF87FB017096E491E88B61E1BC
S1131440C8010E94AD099A8B898B63E1C8010E948F
S1131450AD099C8B8B8B65E1C8010E94AD099E8B05
S11314608D8BDF91CF911F910F910895DC01189618
S11314709C911897ED91FC911197249130E0092EDD
S113148002C0359527950A94E2F7892F860F883094
S113149010F4E22F0FC031961196FC93EE93E49171
S11314A0F0E038E0391B02C0EE0FFF1F3A95E2F777
S11314B0E22B885018968C9381E090E002C0880F4C
S11314C0991F6A95E2F781508E2308950F931F9315
S11314D0CF93DF93EC018C01065C1F4F7BAF6AAFA7
S11314E0FC01EE5BFF4F108239966081C8010E94B7
S11314F0360AFE01E05CFF4F80833C966081C801A0
S11315000E94360AFE01EF5BFF4F8083B396808111
S1131510B0978083CB5BDF4F91E0811190E098839B
S1131520DF91CF911F910F910895CF93C62F0E9401
S1131530360AC15021E030E002C0220F331FCA95A1
S1131540E2F7821BCF9108952F923F924F925F92C0
S11315506F927F928F929F92AF92BF92CF92DF92BF
S1131560EF92FF920F931F93CF93DF93CDB7DEB724
S113157028970FB6F894DEBF0FBECDBF7C016887F5
S1131580342EFC0176AC17AD5C01F0E4AF0EB11C57
S11315906C0186E4C80ED11C470193E4890E911CAA
S11315A0F701EC59FF4FFA83E983C7018B5B9F4F27
S11315B09E838D83B097FC83EB83F501F081F7194B
S11315C0FF835884F51508F45F2EF70165ACF60126
S11315D00081212E202F412F672DF70184AD0E9419
S11315E0C709482E202F412F672D862D0E94B90947
S11315F0332069F0EB81FC819081E981FA81908349
S1131600252D482F642DC7010E948C0D10C0F401B4
S1131610908191110CC0ED81FE819081E981FA8164
S11316209083252D482F642DC7010E948C0DF885C9
S11316308F81F81728F0F81BF8871F5F712CBDCF36
S11316408885870DF70186AF27AE28960FB6F894E4
S1131650DEBF0FBECDBFDF91CF911F910F91FF90E1
S1131660EF90DF90CF90BF90AF909F908F907F903E
S11316706F905F904F903F902F9008958F929F921C
S1131680AF92BF92CF92DF92EF92FF920F931F938C
S1131690CF93DF93EC017C018AE3E80EF11CCE01C9
S11316A00E94660AFE01EF5BFF4F90803C966081CA
S11316B0C7010E94950AB82EFE01E25BFF4F6081CC
S11316C0C7010E94950A182FFE01E15BFF4F60815C
S11316D0C7010E94950A882EFE01E05CFF4FD0806E
S11316E01D140CF077C036960081190D1195202F2A
S11316F0412F6B2D8CAD0E94C709C82E8CAF202FB3
S1131700412F6B2D8DAD0E94B9098DAF013059F079
S113171028F0023091F00330D9F023C02D2D2C0D88
S1131720092D080F20C09C2D991921E02C0D0D2D99
S1131730080FCC24C394C90E16C091E0392F3D196B
S113174021E02C0D991901E0080F890FC30E0BC07D
S1131750292D2C0D982F9D1901E0080F81E0890F88
S113176002C0082F2C2D482F6C2DCE010E940F0E85
S1131770882381F11EAE1FAE5E01E9E4AE0EB11CFA
S11317806E01FAE4CF0ED11CF5016081C7010E94FD
S1131790360A082FF6016081C7010E94360A182F05
S11317A040E0602FCE010E94A40A41E0612FCE01E7
S11317B00E94A40A61E0C7010E94360A8111F0CF99
S11317C08FAD89150CF3FE01EC59FF4FCC5BDF4F55
S11317D088818083882DDF91CF911F910F91FF9095
S11317E0EF90DF90CF90BF90AF909F908F9008952F
S11317F0EF92FF920F931F93CF93DF93FC01C6A93F
S1131800D7A967966F3F710511F008F036C06136AD
S1131810710538F0E65AFF4F80819181C80FD91FB6
S11318200AC06134710538F0FC01E85AFF4F808129
S11318309181C80FD91FCE010196FC012491222366
S113184009F45AC0FE01249130E06217730751F481
S113185006C0FE01249130E06217730719F4CE012B
S1131860029652C0FC018491C80FD11DCE0101968D
S1131870FC0124912111EDCF42C08B01FC01E45AFB
S1131880FF4F80819181C80FD91F7E0160E0C7019D
S11318900E94AD09C80FD91F62E0C7010E94AD09BB
S11318A0F4E0EF0EF11C8017910780F3FE018491A0
S11318B090E0982F88273196E4918E2B009711F1B0
S11318C00817190739F403C00817190719F4CE01CA
S11318D003961AC0FE013296E491CE0FD11DFE018B
S11318E0849190E0982F88273196E4918E2B00976D
S11318F059F780E090E008C080E090E005C080E007
S113190090E002C080E090E0DF91CF911F910F91B1
S1131910FF90EF900895EF92FF920F931F93CF9350
S1131920DF93EC01062F142F7901FC01EA5BFF4FD2
S11319308081813061F028F0823079F0833099F031
S113194017C0E8ADF9ADCE010995180F11C0E8AD87
S1131950F9ADCE010995081B0BC0E8ADF9ADCE0178
S11319600995181B05C0E8ADF9ADCE010995080F1E
S11319700CAF1DAFB701CE010E94F80B009729F000
S1131980BC01CE010E943E0B01C080E0DF91CF91EB
S11319901F910F91FF90EF900895BF92CF92DF9225
S11319A0EF92FF920F931F93CF93DF93EC01B62E28
S11319B0C42EE22EF32E0E945B0F0E2D1F2DD12C70
S11319C07E0126E4E20EF11CF80161918F01EA81A7
S11319D0FB81CE0109958F3FFFEF9F07E9F08E3F12
S11319E02FEF920789F39C014C2D6B2DCE010E94A1
S11319F08B0CF7019081913041F028F0923039F04E
S1131A00933039F007C0B80E05C0C80E03C0B81A29
S1131A1001C0C81AD80ED8CF8D2DDF91CF911F9158
S1131A200F91FF90EF90DF90CF90BF900895EEE478
S1131A30FFE0DC011396FC93EE9312970E94CD0C09
S1131A400895FC0126A937A9232BE9F1EC5AFF4F8D
S1131A5020813C9620833B9740813C96408332977B
S1131A603081332381F1313079F439973081231770
S1131A7014F43A963083FC01E95AFF4F208124176D
S1131A8014F53A9620830895FC01EF5AFF4FE08144
S1131A90DC01AD5ABF4F5C91022E000C330B652F55
S1131AA0052E000C770B6E0F711DE7FD7A95261736
S1131AB037071CF41D96E50FEC93541724F4FC012E
S1131AC0EF59FF4F5083089525ED39E0FC0131AF04
S1131AD020AF0895CF93DF93FC0126A937A92617D9
S1131AE0370751F0EC0177AB66AB895B9F4F0E94DF
S1131AF0D709CE010E94210DDF91CF9108950F9354
S1131B00DC0199963C919997431B5F96ED91FC916A
S1131B10909709950F9108950F93FC01E25AFF4F96
S1131B203081332309F465C0222309F462C02230D2
S1131B3058F0023019F46F5F621B0AC0033021F4BD
S1131B404F5F421B51E02DC0502F517000FD29C042
S1131B50DC01D0963C91D097431708F44AC0D19643
S1131B603C91D197431708F044C09F963C919F97AE
S1131B709E965C91260F261730F4631718F42FEF06
S1131B80230F03C0652F6317A0F5521790F565174F
S1131B9008F4652F231708F4322F232F261B50E057
S1131BA01EC0FC0136A5631720F137A5631708F59D
S1131BB031A970A9240F241730F4431718F42FEF18
S1131BC0230F03C0472F4317A0F4721790F447174D
S1131BD008F4472F231708F4322F232F241BDC018A
S1131BE09196ED91FC9192970480F581E02D052F5B
S1131BF009950F910895461738F4821760F081E033
S1131C00241760F080E00895821738F481E02417E7
S1131C1028F080E0089581E0089580E00895FF921F
S1131C200F931F93CF93DF93EC01162FF22E202FE7
S1131C3069A988A90E94FB0D882331F02F2D412F1B
S1131C406FA58EA50E94FB0DDF91CF911F910F917F
S1131C50FF900895EF92FF920F93CF93DF937C014F
S1131C60342F377081E090E0032E02C0880F991F53
S1131C700A94E2F7C82FF701EC59FF4F5081523014
S1131C8020F4513021F0782F04C070E002C0782F86
S1131C90C0E050E0487FD70193968D919C91949732
S1131CA0ED91FC91D089D49FF001D59FF00D1124C2
S1131CB0E60FF11DE80FF91F011107C08081872B82
S1131CC08C2781932150D1F722C0A7014C595F4F33
S1131CD09081972B9C2790833F5F3770215031115F
S1131CE00EC0D70197968C91E80FF11DDA018C9103
S1131CF0823040F4813041F0C1E071E006C0770FDA
S1131D00CC0F03C0C1E001C071E02111E1CFDF912C
S1131D10CF910F91FF90EF900895FC01A081B181C4
S1131D2085A1982F990F990F990F90A750969C9180
S1131D305097903208F09FE1990F990F990F97A34C
S1131D4046A1942F990F990F990F91A751965C91E1
S1131D505197242F30E0280F311D652F70E0621752
S1131D60730714F4852F841B92A7880F880F880F9C
S1131D70890F83A780EF84A754968D919C915597E2
S1131D80813F910508F484A756968C9185A7089500
S1131D900E948D0E08950F93CF93DF93EC010DA94C
S1131DA02BA94CA96AA90E940F0E811104C0C25A22
S1131DB0DF4F188219C081E0FE01E25AFF4F808391
S1131DC08AA99EA5981708F48EA78BA99FA58917A1
S1131DD008F48FA78CA998A9981708F488AB8DA943
S1131DE099A9891708F489ABDF91CF910F910895D0
S1131DF0FC0116A684A587A782A580AB83A581AB29
S1131E00CF010E94CB0E08950F930E947F0D0F9176
S1131E100895DC01D2961C92D297D4961C92D49742
S1131E208FEFD3968C93D397D5968C93D597919621
S1131E30ED91FC9192970280F381E02DCD010995FB
S1131E4008950F931F93CF93DF93EC011FAA1EAA4B
S1131E5038A32F8F7CA36BA34DA31EA2FC01ED5BC3
S1131E60FF4F1082B0961082319681E080833196C4
S1131E7080831AA309A3D801ED91FC91CE010995A1
S1131E80CE010E94090FCE010E94640DCA5BDF4F90
S1131E901882DF91CF911F910F910895662329F045
S1131EA06A3031F0862F90E008958FEF9FEF089508
S1131EB08FEF9FEF0895FC01118E0895462FDC01EA
S1131EC01896ED91FC91199720E030E060E20995B5
S1131ED008959A01DC011896ED91FC911997462F0B
S1131EE067E109950895CF93DF931F92CDB7DEB7CD
S1131EF06983AE014F5F5F4F61E00E94690F0F90ED
S1131F00DF91CF910895CF92DF92EF92FF920F93DA
S1131F101F93CF93DF938C017901683109F469C071
S1131F2030F4643109F44AC0673149F06EC0693154
S1131F3021F0603209F458C068C081E069C04423CC
S1131F4009F465C04150C42ED12C8FEFC81AD80AA9
S1131F50C20ED31ED701DD917D01C0E44D2F417027
S1131F606C2FC8010E943612D695CF5FC834B1F7E2
S1131F70D801ED91FC9146856CE2C8010E943612AD
S1131F8041E060913203C8010E94361248EC6CE2D1
S1131F90C8010E943612D801ED91FC9147856CE28C
S1131FA0C8010E94361240E060913203C8010E94C9
S1131FB03612EC14FD0471F681E02AC0DC01ED91C7
S1131FC0FC91418169E40E94361240E068E4C80152
S1131FD00E94361240E069E4C8010E94361288E487
S1131FE08093320381E014C06AE40E94361281E0D7
S1131FF00FC0411105C088E48093320381E008C01A
S113200089E48093320381E003C080E001C081E071
S1132010DF91CF911F910F91FF90EF90DF90CF90C0
S11320200895462FDC011696ED91FC91179720E058
S113203030E065E1099508959A01DC011696ED9169
S1132040FC911797462F67E109950895EF92FF9247
S11320500F931F93CF93DF931F92CDB7DEB77C010D
S11320608B01D8016C916731C1F018F4653130F4FB
S113207038C06A31F8F06E3F51F133C0F801418144
S11320804983D7011696ED91FC91179720E030E033
S1132090C70109950E5F1F4FE4CFF8018181898341
S11320A0AE014F5F5F4F61E0C7010E941C100E5FDD
S11320B01F4FD7CF0F5F1F4FD7011696ED91FC919D
S11320C0179720E030E040E0C7010995CACFF80136
S11320D04181498369E2C7010E9436120E5F1F4F96
S11320E0C0CF0F90DF91CF911F910F91FF90EF9090
S11320F00895EF92FF920F931F93CF93DF938C0178
S1132100C62FD42F79016631A1F028F46431E9F0A7
S1132110653131F025C06731A9F06A3108F515C081
S113212060E00E945E0F6D2FC8010E94730F81E072
S113213018C060E00E945E0F6D2FC8010E94730FEB
S113214081E00FC061E00E945E0FD8011896ED9106
S1132150FC91199797014D2F6C2FC801099501C067
S113216080E0DF91CF911F910F91FF90EF90089540
S1132170FC0171836083FB012289FC01248B089597
S1132180CF93DF93EC01EA85FB8520E030E040E06B
S113219068E20995EE81FF8120E030E040E064E1EF
S11321A0CE01099541E06BE4CE010E943612E8812C
S11321B0F981448169E2CE010E94361240E06BE469
S11321C0CE010E943612E881F981448169E2CE0190
S11321D00E94361241E06BE4CE010E943612E8817F
S11321E0F981458169E2CE010E943612DF91CF91D7
S11321F008950F931F93CF93DF9300D000D01F92C5
S1132200CDB7DEB76C834D832B831A830983DC013E
S11322101496ED91FC9115979E012F5F3F4F41E07D
S11322206FE009950F900F900F900F900F90DF9132
S1132230CF911F910F910895DC011496ED91FC91BB
S1132240159720E030E040E069E009950895DC014D
S11322501496ED91FC91159720E030E040E06AE09F
S113226009950895462FDC011496ED91FC9115977C
S113227020E030E06BE009950895DC011496ED91BF
S1132280FC91159720E030E040E060E10995089565
S1132290EF92FF920F931F93CF93DF93EC01890189
S11322A06A3081F018F4693039F0D5C06B30C1F16F
S11322B06F3009F48CC0CFC06BE071E00E94B8109D
S11322C081E0CAC00E94C010EE81FF8120E030E0AE
S11322D040E068E1CE01099569E271E0CE010E9417
S11322E02610EE81FF8120E030E040E069E1CE017C
S11322F00995EE81FF8120E030E041E068E1CE0104
S1132300099569E271E0CE010E942610EE81FF81F9
S113231020E030E041E069E1CE01099581E09CC014
S113232041112AC0EE81FF8120E030E068E1099587
S113233066E271E0CE010E942610EE81FF8120E06A
S113234030E040E069E1CE010995EE81FF8120E0B3
S113235030E041E068E1CE01099566E271E0CE012A
S11323600E942610EE81FF8120E030E041E069E127
S1132370CE01099581E070C0EE81FF8120E030E05C
S113238040E068E1099563E271E0CE010E94261005
S1132390EE81FF8120E030E040E069E1CE01099563
S11323A0EE81FF8120E030E041E068E1CE01099553
S11323B063E271E0CE010E942610EE81FF8120E0ED
S11323C030E041E069E1CE01099581E045C0F901C1
S11323D0E080F180EE81FF8120E030E040E068E1C0
S11323E0099560E0CE010E941110F8016481686BC8
S11323F0CE010E941110A7016DE3CE010E941C10B2
S1132400EE81FF8120E030E040E069E1CE010995F2
S1132410EE81FF8120E030E041E068E1CE010995E2
S113242060E0CE010E941110F8016481686BCE0156
S11324300E941110A701435C5F4F6DE3CE010E941F
S11324401C10EE81FF8120E030E041E069E1CE0123
S1132450099581E001C080E0DF91CF911F910F9138
S1132460FF90EF9008950E9448110895DC011A9698
S1132470ED91FC911B9720E030E00995089580E0F0
S11324800895FC01118210828FE392E19583848385
S1132490978386839187808793878287158A108E96
S11324A0118E14861586168617868FEF868B838F7A
S11324B00895AF92BF92CF92DF92EF92FF920F9363
S11324C01F93CF93DF93EC015B016A0179010E94B2
S11324D04112BD82AC82DF82CE82F986E8861B87F8
S11324E00A87CE010E941C11DF91CF911F910F9199
S11324F0FF90EF90DF90CF90BF90AF900895A1E24E
S11325001A2EAA1BBB1BFD010DC0AA1FBB1FEE1F69
S1132510FF1FA217B307E407F50720F0A21BB30BB4
S1132520E40BF50B661F771F881F991F1A9469F730
S113253060957095809590959B01AC01BD01CF018C
S11325400895EE0FFF1F0590F491E02D0994A29FCA
S1132550B001B39FC001A39F700D811D1124911D73
S1132560B29F700D811D1124911D0895DC0101C0DD
S11125706D9341505040E0F70895F894FFCF6A
S113257E5538673200C80EF80E040F0001641401BA
S113258E060C4B00093D000004C8C8100400007A74
S113259E00200015AEFF15AFFF15C015A015A4152C
S10525AEA9FF7F
S9030000FC
