S01700004763634170706C69636174696F6E322E737265635A
S11300000C9438000C9442000C9442000C9442006E
S11300100C9442000C9442000C9442000C94420054
S11300200C9442000C9442000C9442000C94420044
S11300300C9442000C9442000C9442000C94420034
S11300400C9442000C9442000C9442000C94420024
S11300500C9442000C9442000C9442000C94420014
S11300600C9442000C9442000C9442000C94420004
S113007011241FBECFEFD4E0DEBFCDBF0E94F90034
S11300800C94D5010C940000D59AD49AD39AD29AA0
S1130090BC9ABB9ABA9AB99ADD98DC98DB98DA983C
S11300A0C498C398C298C1980895D598D498D39801
S11300B0D298BC98BB98BA98B998DD98DC98DB982C
S11300C0DA98C498C398C298C198089580FF02C072
S11300D0DD9A01C0DD9881FF02C0DC9A01C0DC9882
S11300E082FF02C0DB9A01C0DB9883FF02C0DA9A68
S11300F001C0DA9884FF02C0C49A01C0C49885FF85
S113010002C0C39A01C0C39886FF02C0C29A01C04C
S1130110C298882314F4C19A0895C198089586B3A7
S113012096B392FB992790F98270892B96B393FB2F
S1130130992790F9880F892B96B392959170880F1F
S1130140892B99B392FB992790F9880F892B99B33E
S113015093FB992790F9880F892B99B39295917005
S1130160880F892B99B395FB992790F9880F892BD0
S11301700895CF930E945500D89A8AE18A95F1F7A1
S113018000C0D9988AE18A95F1F700C00E948F00D7
S1130190C82F8AE18A95F1F700C0D99AD8980E94AD
S11301A044008C2FCF910895D8989AE19A95F1F74D
S11301B000C0D9989AE19A95F1F700C00E946600B0
S11301C085E88A95F1F70000D99A8FE19EE40197BA
S11301D0F1F700C000000895C0980E94D400C09AAE
S11301E00895C09A0E94B9000895C0980E94B90069
S11301F00895CF93DF9300D0CDB7DEB7309A319A0C
S11302000E944400D79AB89AD69AD19AD09A8C9AD6
S1130210D99A949A8FE19EE40197F1F700C0000007
S1130220DE9A8FE19EE40197F1F700C00000DF9AA7
S11302308EEE0E94EC0084EA0E94EC0089EA0E949F
S1130240EC008FEA0E94EC0080EA0E94EC0082EE4F
S11302500E94EC0080E00E94EC0088EB0E94EC001D
S11302600E94F10080E00E94EC000E94F10081EB0A
S11302700E94D40082E00E94D40084E00E94D40052
S113028088E00E94D40080E10E94D40080E20E94B1
S1130290D40080E40E94D40080E80E94D400DF9857
S11302A08EEE0E94EC0084EA0E94EC0089EA0E942F
S11302B0EC008FEA0E94EC0080EA0E94EC0082EEDF
S11302C00E94EC0080E00E94EC008AEB0E94EC00AB
S11302D00E94F1008AE00E94EC000E94F1008AEA88
S11302E00E94D40085E50E94D4008AEA0E94D400CA
S11302F085E50E94D4008AEA0E94D40085E50E9424
S1130300D4008AEA0E94D40085E50E94D400DF9AD2
S11303100E94F500898388EB0E94EC000E94F100A2
S113032081E00E94EC000E94F1000E94F1008A83A7
S113033088EB0E94EC000E94F10081E00E94EC0036
S113034010E0812F0E94D4001F5F1035D1F789EB94
S11303500E94EC000E94F10081E00E94EC0010E099
S1130360812F0E94D4001F5F1035D1F78AEB0E94C1
S1130370EC000E94F10081E00E94EC0010E0812F6B
S11303800E94D4001F5F1035D1F78BEB0E94EC0064
S11303900E94F10081E00E94EC0010E0812F0E9495
S11103A0D4001F5F1035D1F7C3CFF894FFCF00
S9030000FC
