S01700004763634170706C69636174696F6E312E737265635B
S1130000DDC10000F7C10000F5C10000F3C100002C
S1130010F1C10000EFC10000EDC10000EBC1000020
S1130020E9C10000E7C10000E5C10000E3C1000030
S1130030E1C10000DFC10000DDC10000DBC1000040
S1130040D9C10000D7C10000D5C10000D3C1000050
S1130050D1C10000CFC10000CDC10000CBC1000060
S1130060C9C10000C7C10000C5C10000C3C1000070
S11300708602DE02DE02DE02DE02DE02DE02DE02D4
S1130080DE02DE02DE02DE02DE02DE02DE02DE026C
S1130090DE02DE02DE02DE02DE02DE02DE02DE025C
S11300A095029B02A102A702AD02B302B902BF02EC
S11300B0C502C902D202D80200100000300000704C
S11300C00080FF00E0FF01F0FF03F0FF01F8FF00F4
S11300D0F87100F83000F81000F80000F80000F89B
S11300E00000F80000F80000F80000F80000F80034
S11300F000000000800000C00000E00000F01F00CD
S1130100F87F00FCFF00F8FF00F0FF01E0F801C0F9
S1130110F00180F00100F00100F00100F00100F0B6
S11301200100F00100F00100F00100F00100000006
S1130130000000000400000E00001F00803F00C00B
S11301407F00E0FF00F0FF01803F00803F00803F20
S113015000803F00803F00803F00803F00803F00E0
S1130160803F00803F00803F0000000000000080CE
S11301703F00803F00803F00803F00803F00803F81
S113018000803F00803F00803F00803F00803F00B0
S1130190F0FF01E0FF00C07F00803F00001F00006F
S11301A00E0000040000000012000404040503040F
S11301B0050B1400FC0EFC10FE00000000013C20A6
S11301C00500881C2A13AAC89C040A1222848921C7
S11301D0234C24122808002B0DAAA89C04CAE84129
S11301E0218132022C0F954C5C8490203246C888C1
S11301F069C2002D0626EC1C182E0A449E3C44A01D
S11302001001002F1C4B493C25142950A440910295
S1130210450A142950A4409102450A1429120030B9
S113022019EA885CCCA01854AA90992323480C3965
S113023063A854A111688C00310DEA889C048AAA31
S113024050FEE841013211EA885CCCA018544CA05D
S1130250B861F3D983023317EA885CCCA018544CF4
S1130260A03851C40A0E245668041A23003419EA2B
S113027088DCC40D23556884982142C6081124E4FF
S1130280413181C20C193514EA881C1E1C148824BF
S1130290E1400989151A81C608003615EA885CCC44
S11302A01C192710490A51C5685668041A230037D7
S11302B00FEA881C1E1494DDB0D909942300381960
S11302C0EA885CCCA018548C98084162CCA01854DD
S11302D08C58A111688C003915EA885CCCA018549C
S11302E08C66A5442441286EC81923003A0DA49EA7
S11302F03C44A0102A0285080000000004FFFF000F
S113030000120002020303020404050800FF07FFB1
S113031007FF00000000009E200580DF002A09ACD2
S1130320D8C4A44652312B0AADD8661487CC28020F
S11303302C06DBD7A9122D068CDA8C002E07DBD70E
S1130340A595002F0AB4D8830C621B64003007F310
S1130350D855AE0A3107F3D825D91A320BB4D8A927
S1130360984152198C00330AB4D88C18359249013B
S1130370340AB4D846558D984102350AB4D80C0DC8
S113038036924901360AB4D8A90C56944901370B60
S1130390B4D88C0C6206318308380AB4D8A99854AE
S11303A0944901390AB4D8A928D30649013A07EA7D
S11303B0D88C380200000004FFFF000011241FBE87
S11303C0CFEFD4E0DEBFCDBF12E0A0E0B1E0E0E8C3
S11303D0F1E202C005900D92AE32B107D9F724E0E4
S11303E0AEE2B2E001C01D92AA39B207E1F7C1D270
S11303F00C94BE1005CE81E38FBD82E18EBD82E3F5
S113040090E099BD88BD84EF91E09BBD8ABD0895BD
S113041090E0981741F0EBEBF7E03197F1F700C06B
S113042000009F5FF6CF08950F931F93CF93DF9340
S1130430D62F072F182FDFDFC0E0CD17A0F4F80167
S113044086E0C89FE00DF11D112422813381808153
S11304503BBD2ABD082E000C990B99BD88BD848133
S1130460D7DFCF5FEACF1EBC3A98DF91CF911F91BF
S11304700F9108956A3261F030F46932A1F580E099
S113048090E050E025C06B3239F06C32B1F02BC0F3
S113049080E090E050E013C0242F30E0A4E6B0E008
S11304A00E94D70D24EF31E040E050E00E94AF0DF0
S11304B0233218F4822F0197F1F781E0089584170D
S11304C09507DCF72AE12A95F1F700C00196F7CFEA
S11304D08417950794F7EFECF7E03197F1F700C034
S11304E000000196F5CF80E008950F931F93CF93FA
S11304F0DF93D901062F10E0F801B897E432F10533
S113050008F05CC0E85CFF4F0C94D10DD59AD49AE6
S1130510D39AD29ABC9ABB9ABA9AB99AD79AB89AE9
S1130520D69AD19AD09AD99A45C0442311F0DD9A2B
S11305304CC0DD984AC0442311F0DC9A46C0DC98D4
S113054044C0442311F0DB9A40C0DB983EC04423EE
S113055011F0DA9A3AC0DA9838C0442311F0C49AF8
S113056034C0C49832C0442311F0C39A2EC0C39837
S11305702CC0442311F0C29A28C0C29826C0442338
S113058011F0C19A22C0C19820C0DF9A442341F0DF
S113059004C0DF98442319F0D99AD99A16C0D9987F
S11305A0D99813C0442311F0C09A0FC0C0980DC04D
S11305B0442311F0DE9A09C0DE9807C09D01EC01C6
S11305C059DF811102C081E08A8F81E0DF91CF91F0
S11305D01F910F91089525E732E040E35BE068EF57
S11305E071E084E394E0A5D284E394E00E94920C49
S11305F060E084E394E00C949C0C61E073E084E399
S113060094E02AD684E394E086C2EF92FF920F939B
S1130610CF93C62F880F990BFC01E651FE4FE08063
S1130620F18004E124E14BE06EE384E394E0FED145
S11306301F92CF9383EE91E09F938F938EE292E08B
S11306409F938F930E94E60D68EA71E084E394E03F
S113065003D62EE232E04DE162E584E394E0ABD5CB
S11306600F900F900F900F900F900F9084E394E0F1
S1130670CF910F91FF90EF904EC290913202981754
S113068039F08093320291E09093000161E006C05A
S1130690609100016F5F60930001892FB6CF8730AE
S11306A02CF4813054F4882371F004C0893049F06B
S11306B08D3061F080E090E00895DFDF81E090E02C
S11306C0089582E001C083E08093010182E090E01C
S11306D008958D3029F0833431F080E090E008955E
S11306E082E090E0089581E090E00895823399F0EB
S11306F02CF48D3051F0803329F40DC0853359F03A
S1130700833449F080E090E0089581E08093010112
S113071082E090E0089581E090E0089590910101D5
S1130720923031F0933031F0913069F4B8DF03C086
S1130730D0DF01C0DBDF8130910561F082309105AB
S113074081F0892BA9F46091590170915A0180912B
S11307505B010DC060919E0170919F018091A00189
S113076006C06091020170910301809104015CCE86
S113077008958F9A8E9A8D9A979A969A959AA09898
S1130780A198A298A398A89AA99AAA9AAB9A319ADE
S1130790309A8A9A8B9A8C9A949A329A1CDF2DCF2B
S11307A0AF92BF92CF92DF92EF92FF920F931F937B
S11307B0CF93DF93979A969A95988FE19EE4019749
S11307C0F1F700C0000063B363FBAA24A0F8B12CC6
S11307D0B50191E06927660F771F13B312FBCC2490
S11307E0C0F8D12C21E0C2268601062B172BB801B4
S11307F0660F771F13B316951170C12F40E0D42FE5
S11308008E0181E00827062B172B000F111F63B3FD
S11308106170C1E06C27062B000F111F979A969800
S1130820959A8FE19EE40197F1F700C0000063B34D
S113083063FB882780F990E021E08227802B912BAD
S1130840880F991F63B362FBEE27E0F9F0E041E003
S1130850E427BF01682B792BFB01EE0FFF1F83B345
S113086081FBEE24E0F8F12CB70181E068276E2BC0
S11308707F2B660F771F83B381708C27682B660FDD
S1130880771F9798969A959A8FE19EE40197F1F7CE
S113089000C0000083B383FB442740F950E091E09B
S11308A04927462B572B440F551F83B382FB22271E
S11308B020F930E081E02827C901842B952B9C0185
S11308C0220F331F83B381FBAA27A0F9B0E0CD0127
S11308D041E08427822B932B880F991F23B3217027
S11308E0C2278C2B8032910571F190F484309105EC
S11308F031F138F48130910581F1029761F582E09C
S11309002DC088309105E9F0409729F584E026C090
S1130910811521E09207C9F028F480349105D9F4B7
S113092086E01CC0811524E0920789F0811548E017
S1130930940779F08115924071F488E00FC083E048
S11309400DC083E40BC085E009C087E007C089E0DF
S113095005C08DE003C080E001C081E0DF91CF914C
S11309601F910F91FF90EF90DF90CF90BF90AF90C9
S11309700895FFDE15DF8823E9F3D0DEFBCF6F9205
S11309807F928F929F92AF92BF92CF92DF92EF921B
S1130990FF920F931F93CF93DF937C01C62F742E86
S11309A058016C0184E6C80ED11CF6016080162F34
S11309B0120F01E0040F212FC701F2D4882339F16B
S11309C0D1E04701F3E68F0E911CC117F1F0F50158
S11309D084918D2319F0F601608209C0F4018081AD
S11309E081110BC081E0611080E0F601808300E09A
S11309F021E0472D6C2FC70151D4CF5FDD0F29F7BC
S1130A00FFEFAF1ABF0AD1E0E0CFF6016082DF91B9
S1130A10CF911F910F91FF90EF90DF90CF90BF90F7
S1130A20AF909F908F907F906F9008958F929F9238
S1130A30AF92BF92CF92DF92EF92FF920F931F93E8
S1130A40CF93DF935C01962EC42F822ED42FD00F28
S1130A50260F0D2FA5D4882399F087E0880DC82E82
S1130A60C694C694C694D12CCD1751F08701282D75
S1130A704C2F692DC50183DFEC0CFD1CCF5FF4CF37
S1130A80DF91CF911F910F91FF90EF90DF90CF9066
S1130A90BF90AF909F908F900895AF92BF92CF92E6
S1130AA0DF92EF92FF920F931F93CF93DF93EC01AA
S1130AB0ADA0EEA0E881F981B188FE2CC12CD12C27
S1130AC0E881F98120890BA11CA188E0289FA0015D
S1130AD011244C9DC0014D9D900D5C9D900D1124E1
S1130AE0080F191F4F2D60E0CE01EFD6F3948F2D20
S1130AF08E198A1528F48FEFC81AD80AFB1400F34C
S1130B00DF91CF911F910F91FF90EF90DF90CF90E5
S1130B10BF90AF900895CF93DF93EC01BEDFCE0179
S1130B20DF91CF9113C724E0FC01208383E392E09B
S1130B300895CF92DF92EF92FF920F931F93CF937A
S1130B40DF931F92CDB7DEB77C016B0189019A0157
S1130B5045EF5BE060EB7CE0DFD7CE010196E3DF9D
S1130B6086012FEE39E04981BC01C7011FD50F90E2
S1130B70DF91CF911F910F91FF90EF90DF90CF9075
S1130B800895FC01E60FF11D849190E0982F8827C9
S1130B903196E4918E0F911D0895213039F020F0A3
S1130BA0223031F4841B0895840F0895860F08952C
S1130BB0861B0895213039F020F0223031F4861B51
S1130BC00895860F0895841B0895840F089580E086
S1130BD008950F931F93CF93DF93EC018B01FB01D7
S1130BE0849188833196E491E983FB013296E49100
S1130BF0EA83FB013396E491EB83FB013496E491A1
S1130C00EC83FB013596E491ED83FB013696E49188
S1130C10EE83FB013796E491EF83FB013896E49170
S1130C20E887FB013996E491E987FB013A96E49160
S1130C30EA87FB013B96E491EB87FB013C96E49148
S1130C40EC87FB013D96E491ED87FB013E96E49130
S1130C50EE87FB013F96E491EF87FB017096E491E8
S1130C60E88B61E1C8018DDF9A8B898B63E1C80150
S1130C7088DF9C8B8B8B65E1C80183DF9E8B8D8B1A
S1130C80DF91CF911F910F910895DC0118964C913B
S1130C901897ED91FC911197249130E0042E02C035
S1130CA0359527950A94E2F7842F860F883010F43F
S1130CB0E22F0DC031961196FC93EE93E49198E0E7
S1130CC0941B01C0EE0F9A95EAF7E22B8850189610
S1130CD08C9381E090E001C0880F6A95EAF7815017
S1130CE08E2308950F931F93CF93DF93EC018C0110
S1130CF0065C1F4F7BAF6AAFFC01EE5BFF4F1082B7
S1130D0039966081C801C1DFFE01E05CFF4F80833A
S1130D103C966081C801B9DFFE01EF5BFF4F808321
S1130D20B3969081B0979083CB5BDF4F81E09111B4
S1130D3080E08883DF91CF911F910F910895CF9325
S1130D40C62FA3DFC15021E030E001C0220FCA95B5
S1130D50EAF7821BCF9108952F923F924F925F92B0
S1130D606F927F928F929F92AF92BF92CF92DF92B7
S1130D70EF92FF920F931F93CF93DF93CDB7DEB71C
S1130D8027970FB6F894DEBF0FBECDBF9F838E8327
S1130D90762E4983FC0116AD57ACE05CFF4FFB8314
S1130DA0EA838A5B9F4F9D838C83CE80DF8093E4AC
S1130DB0C90ED11CEE80FF80E4E6EE0EF11CAE807D
S1130DC0BF80F5E4AF0EB11C8E809F8084E4880E52
S1130DD0911CEA81FB816080611A472C671408F436
S1130DE0462CEE81FF8125ACEC81FD810081202F12
S1130DF0452D612FEE81FF8184ADDCDE382E202F5E
S1130E00452D612F822DC9DE482FF981FF2311F072
S1130E10F40105C0F6018081811109C0F5018081CA
S1130E20F7018083242D632D8E819F8137D2761420
S1130E3020F07618539410E0CCCF170DEE81FF818B
S1130E4016AF57AE27960FB6F894DEBF0FBECDBFD0
S1130E50DF91CF911F910F91FF90EF90DF90CF9092
S1130E60BF90AF909F908F907F906F905F904F90C6
S1130E703F902F9008958F929F92AF92BF92CF92FE
S1130E80DF92EF92FF920F931F93CF93DF93EC01C6
S1130E906C018AE3C80ED11CCE0124DFFE01EF5B96
S1130EA0FF4FE0803C966081C60149DF982EFE0129
S1130EB0E25BFF4F6081C60142DFB82EFE01E15BB9
S1130EC0FF4F6081C6013BDFA82EFE01E05CFF4FAF
S1130ED0008110160CF06DC03696F080BE0CB194F3
S1130EE02F2D4B2D692D8CAD65DE182F8CAF2F2D3A
S1130EF04B2D692D8DAD51DE8DAF91E0F916B1F01A
S1130F00F91678F0E2E0FE16B9F0F3E0FF121FC024
S1130F102E2D210F982F901B01E0080F81E0890FDF
S1130F2018C0202F210F0E2D080F13C0FE1821E02A
S1130F30210F080F1F0D0DC091E0392F301B21E048
S1130F40210F9E1901E0080F890F130F02C0082F0B
S1130F50212F482F612FCE0123D2882351F11EAEB9
S1130F601FAE8E01075B1F4F4E018AE4880E911C51
S1130F70F8016081C60189DEB82EF4016081C601E2
S1130F8084DEF82E40E06B2DCE01E6DE41E06F2DCD
S1130F90CE01E2DE61E0C60178DE8111F3CF8FADD0
S1130FA08E1534F3FE01EC59FF4FCC5BDF4F888183
S1130FB080838A2DDF91CF911F910F91FF90EF9045
S1130FC0DF90CF90BF90AF909F908F900895EF9255
S1130FD0FF920F931F93CF93DF93FC0126A937A9A8
S1130FE0295E3F4F6F3F710509F020F561367105A9
S1130FF018F0E65AFF4F06C06134710538F0FC0161
S1131000E85AFF4F80819181280F391FC901019649
S1131010FC014491442309F43AC0F901449150E09D
S11310206417750711F4019634C0FC018491280FEC
S1131030311DECCF8B01FC01E45AFF4FC081D181FB
S1131040C20FD31F7E0160E0C7019BDDC80FD91F0B
S113105062E0C70196DDF4E0EF0EF11C8017910702
S113106090F3FE01849190E0982F88273196E491C3
S11310708E2B009761F00817190719F4CE01039617
S113108008C0FE013296E491CE0FD11DEACF80E074
S113109090E0DF91CF911F910F91FF90EF90089511
S11310A0EF92FF920F931F93CF93DF93EC01062FE0
S11310B0142F7901FC01EA5BFF4F8081813089F0B4
S11310C050F08230A1F08330B9F4E8ADF9ADCE012F
S11310D00995080F11C0E8ADF9ADCE010995180FB7
S11310E00BC0E8ADF9ADCE010995081B05C0E8AD0C
S11310F0F9ADCE010995181B0CAF1DAFB701CE0198
S113110066DF009749F0BC01CE01DF91CF911F91BA
S11311100F91FF90EF90AFCE80E0DF91CF911F91C0
S11311200F91FF90EF900895AF92BF92DF92EF92EC
S1131130FF920F931F93CF93DF93EC01162F042F8D
S1131140B22ED32E68D2EB2CFD2CD12C5E0126E4DA
S1131150A20EB11CF70161917F01EA81FB81CE01EE
S113116009958F3FFFEF9F07D9F08E3F2FEF92072E
S113117089F39C01402F612FCE0192DFF50190810C
S1131180913049F030F0923041F0933039F4081B3B
S113119005C0180F03C0080F01C0181BD80EDACF02
S11311A08D2DDF91CF911F910F91FF90EF90DF90E4
S11311B0BF90AF900895E1E0FBE0DC011396FC934F
S11311C0EE931297B1CFCF93DF93FC0126A937A9F1
S11311D0232BC9F1EC5AFF4F2081DC01A05ABF4FE9
S11311E02C93319650813C965083EC01C15ADF4FC9
S11311F03881332341F1313069F429973881231739
S11312000CF43C93DC01A95ABF4F8C918517DCF494
S1131210808319C0EC01CF5ADF4F48812296388170
S1131220822F220F990B632F032E000C770B640F70
S1131230711D47FD7A958617970714F4430F4C9355
S113124035170CF43083DF91CF91089527EE35E004
S1131250FC0131AF20AF0895CF93DF93FC0126A9A1
S113126037A92617370751F0EC0177AB66AB895BDA
S11312709F4FAFDCCE01DF91CF91A5CFDF91CF910E
S113128008950F93DC0199963C919997431B5F96BF
S1131290ED91FC91909709950F9108950F93DC01BE
S11312A0802FFD01E25AFF4F9081992309F468C011
S11312B0222309F465C0223048F0023019F46F5F2C
S11312C0621B04C0033011F44F5F421B082F0170EE
S11312D080FD28C0D0968C91D097481708F450C050
S11312E0D1968C91D197481708F04AC09F969C914B
S11312F09F979E968C919E97260F261730F4691718
S113130018F42FEF290F03C0682F6917C8F5821747
S1131310B8F5681708F4682F291708F4922F292FB5
S1131320261B25C09E968C919E97681748F19F9620
S11313308C919F97681720F5D1969C91D197D09660
S11313408C91D097240F241730F4491718F42FEFF9
S1131350290F03C0482F491798F4821788F44817B7
S113136008F4482F291708F4922F292F241B91964B
S1131370ED91FC9192970480F581E02DCD010995C2
S11313800F910895461730F4821740F081E0241736
S113139030F002C08217D0F380E0089581E0089510
S11313A0FF920F931F93CF93DF93EC01162FF22E2E
S11313B0202F69A988A9E6DF882351F02F2D412F1A
S11313C06FA58EA5DF91CF911F910F91FF90DACF7A
S11313D080E0DF91CF911F910F91FF900895EF92DC
S11313E0FF920F931F93CF93DF93EC01742F7770C9
S11313F0E1E0F0E0072E01C0EE0F0A94EAF73E2F79
S11314007C0184E6E80EF11CD7018C91823028F42B
S11314101E2F813019F430E001C010E050E0487F05
S11314208BA19CA1A881B9815096FC91F49FD00115
S1131430F59FB00D1124A60FB11DA80FB91F0111FE
S11314400BC08C91812B83278D932150D1F71CC025
S1131450110F330F2223C1F09C91912B93279C935E
S11314607F5F777021507111F3CF8FA1A80FB11D49
S1131470F7018081823020F4813021F031E002C014
S113148031E0E8CF11E0E6CFDF91CF911F910F91CA
S1131490FF90EF900895FC01A081B18195A1892F5F
S11314A0880F880F880F80A750968C9150978032B0
S11314B008F08FE1880F880F880F87A326A1822F59
S11314C0880F880F880F81A751963C915197422F1E
S11314D050E0490F511D632F70E06417750714F431
S11314E0932F921B82A728E0929F800D112483A73B
S11314F080EF84A754968D919C915597813F9105D7
S113150008F484A756968C9185A708950F93B9DEA5
S11315100F9108950F93CF93DF93EC010DA92BA99D
S11315204CA96AA93DDFFE01E25AFF4F811102C0B6
S1131530108216C081E080838AA99EA5981708F4BA
S11315408EA78BA99FA5891708F48FA78CA998A9A2
S1131550981708F488AB8DA999A9891708F489AB61
S1131560DF91CF910F910895FC0116A684A587A75A
S113157082A580AB83A581ABCF01CCCF8CCFDC011E
S1131580D2961C92D297D4961C92D4978FEFD3966E
S11315908C93D397D5968C93D5979196ED91FC9196
S11315A092970280F381E02DCD0109940F931F934C
S11315B0CF93DF93EC011FAA1EAA38A32F8F7CA31D
S11315C06BA34DA31EA2FC01ED5BFF4F1082B096EE
S11315D01082319681E08083319680831AA309A317
S11315E0D801ED91FC91CE010995CE01C8DFCE0161
S11315F02DDECA5BDF4F1882DF91CF911F910F91CF
S11316000895662329F06A3019F0862F90E0089532
S11316108FEF9FEF0895FC01118E0895462FDC0192
S11316201896ED91FC91199720E030E060E209945E
S11316309A01DC011896ED91FC911997462F67E108
S11316400994CF93DF931F92CDB7DEB76983AE01C0
S11316504F5F5F4F61E0ECDF0F90DF91CF91089512
S1131660CF92DF92FF920F931F93CF93DF93EC01FE
S1131670142F6901683109F44CC028F46431B9F1BC
S1131680673169F14AC0693109F441C0603209F037
S113169044C06AE41FD23BC04F2D4170602FCE017D
S11316A019D2F6940F5F0834B9F7E881F9814685B9
S11316B06CE2CE010FD241E060913304CE010AD234
S11316C048EC6CE2CE0106D2E881F98147856CE2F0
S11316D0CE0100D240E060913304CE01FBD111234E
S11316E0B1F0F601F1906F01115000E4D5CFE8811B
S11316F0F981418169E4EED140E068E4CE01EAD1A8
S113170040E069E4CE01E6D188E48093330481E0CB
S113171005C04423C9F389E4F8CF80E0DF91CF9179
S11317201F910F91FF90DF90CF900895462FDC0119
S11317301696ED91FC91179720E030E065E109944D
S11317409A01DC011696ED91FC911797462F67E1FB
S11317500994EF92FF920F931F93CF93DF931F92FD
S1131760CDB7DEB77C018B01D8016C916731D9F01C
S113177078F4653190F1F80141814983D7011696D7
S1131780ED91FC91179720E030E0C701099522C044
S11317906A3198F06E3F09F5F8014181498369E2A5
S11317A0C70198D117C0F80181818983AE014F5FC9
S11317B05F4F61E0C701C4DF0DC00F5F1F4FD7014A
S11317C01696ED91FC91179720E030E040E0C701B8
S11317D00995CACF0E5F1F4FC7CF0F90DF91CF91EE
S11317E01F910F91FF90EF900895EF92FF920F9346
S11317F01F93CF93DF93EC01162F042F79016631E9
S113180059F028F4643191F0653131F01CC067312E
S113181059F06A31C0F40AC060E0CE01FFDE602FE7
S1131820CE010FDF81E010C061E0F8DEE885F985C4
S11318309701402F612FCE01DF91CF911F910F911E
S1131840FF90EF90099480E0DF91CF911F910F9169
S1131850FF90EF900895FC0171836083FB0122895E
S1131860FC01248B0895CF93DF93EC01EA85FB857B
S113187020E030E040E068E20995EE81FF8120E05D
S113188030E040E064E1CE01099541E06BE4CE0133
S113189021D1E881F981448169E2CE011BD140E084
S11318A06BE4CE0117D1E881F981448169E2CE016C
S11318B011D141E06BE4CE010DD1E881F98145817C
S11318C069E2CE01DF91CF9105C10F931F93CF93AE
S11318D0DF9300D000D01F92CDB7DEB76C834D8369
S11318E02B831A830983DC011496ED91FC911597DF
S11318F09E012F5F3F4F41E06FE009950F900F90DD
S11319000F900F900F90DF91CF911F910F91089539
S1131910DC011496ED91FC91159720E030E040E055
S113192069E00994DC011496ED91FC91159720E08F
S113193030E040E06AE00994462FDC011496ED9112
S1131940FC91159720E030E06BE00994DC011496DB
S1131950ED91FC91159720E030E040E060E10994BE
S1131960EF92FF920F931F93CF93DF93EC017901D2
S11319706A3009F443C038F4693009F0A3C06EEF4B
S113198071E069DF9DC06B3009F458C06F3009F015
S113199099C0F90100811181EE81FF8120E030E0DE
S11319A040E068E1099563E1CE01C0DEF70164819E
S11319B0686BCE01BBDEA8016DE3CE01C1DEEE8112
S11319C0FF8120E030E040E069E1CE010995EE813D
S11319D0FF8120E030E041E068E1CE01099560E05C
S11319E0CE01A4DEF7016481686BCE019FDEA801FD
S11319F0435C5F4F6DE3CE01A3DE5AC034DFEE815A
S1131A00FF8120E030E040E068E1CE01099565E225
S1131A1072E0CE019EDEEE81FF8120E030E040E006
S1131A2069E1CE010995EE81FF8120E030E041E0DB
S1131A3068E1CE0109956CE172E038C0EE81FF8166
S1131A4020E030E0411119C068E1099569E172E0D4
S1131A50CE017FDEEE81FF8120E030E040E069E1ED
S1131A60CE010995EE81FF8120E030E041E068E19C
S1131A70CE01099569E172E019C040E068E1099579
S1131A8066E172E0CE0165DEEE81FF8120E030E0A8
S1131A9040E069E1CE010995EE81FF8120E030E06C
S1131AA041E068E1CE01099566E172E0CE0151DEC4
S1131AB0EE81FF8120E030E041E069E1CE0109954B
S1131AC081E001C080E0DF91CF911F910F91FF90E1
S1131AD0EF900895DC011A96ED91FC911B9720E09C
S1131AE030E0099480E00895FC011182108282E7BD
S1131AF09DE09583848397838683918780879387EA
S1131B008287158A108E118E14861586168617867E
S1131B108FEF868B838F0895AF92BF92CF92DF921F
S1131B20EF92FF920F931F93CF93DF93EC015B012E
S1131B306A017901D9DFBD82AC82DF82CE82F98667
S1131B40E8861B870A87CE01DF91CF911F910F9101
S1131B50FF90EF90DF90CF90BF90AF90D9CEA1E2ED
S1131B601A2EAA1BBB1BFD010DC0AA1FBB1FEE1F13
S1131B70FF1FA217B307E407F50720F0A21BB30B5E
S1131B80E40BF50B661F771F881F991F1A9469F7DA
S1131B9060957095809590959B01AC01BD01CF0136
S1131BA00895EE0FFF1F0590F491E02D0994A29F74
S1131BB0B001B39FC001A39F700D811D1124911D1D
S1131BC0B29F700D811D1124911D0895AEE0B0E007
S1131BD0EBEEFDE0AAC20D891E8986E08C831A8390
S1131BE009838FEF9FE79E838D83AE01475E5F4F2E
S1131BF06F89788DCE01019608D0EF81F885E00FCA
S1131C00F11F10822E96E4E0ACC2ABE0B0E0EAE053
S1131C10FEE07DC26C017B018A01FC011782168201
S1131C20838181FFBFC1CE0101963C01F6019381FE
S1131C30F70193FD859193FF81917F01882309F436
S1131C40ADC1853239F493FD859193FF81917F0174
S1131C50853221F4B60190E0C0D1E8CF912C212C3B
S1131C60312CFFE1F315D8F08B3279F038F480325F
S1131C7079F08332A1F4232D20611DC08D3261F0EF
S1131C80803369F4232D216016C0832D8260382EA1
S1131C90E32DE4603E2E2AC0F32DF8601DC037FC0E
S1131CA02DC020ED280F2A3040F08E32B9F436FCD6
S1131CB075C1232D2064322E19C036FE06C08AE079
S1131CC0989E200D1124922E11C0EAE02E9E200D24
S1131CD01124222EF32DF0623F2E08C08C3621F4FD
S1131CE0832D8068382E02C0883641F4F70193FDB5
S1131CF0859193FF81917F018111B3CF982F9F7DAF
S1131D009554933028F40C5F1F4F9FE399830DC0C3
S1131D10833631F0833771F0833509F055C020C024
S1131D20F801808189830E5F1F4F88248394912C4E
S1131D30530112C02801F2E04F0E511CF801A0809B
S1131D40B18036FE03C0692D70E002C06FEF7FEFF3
S1131D50C50138D14C018201F32DFF773F2E15C008
S1131D60280122E0420E511CF801A080B18036FE09
S1131D7003C0692D70E002C06FEF7FEFC50117D17A
S1131D804C01F32DF0683F2E820133FC19C0822DE3
S1131D9090E088169906A0F4B60180E290E01DD187
S1131DA02A94F5CFF50137FC859137FE81915F01C7
S1131DB0B60190E012D121102A9421E0821A9108F0
S1131DC08114910479F7E1C0843611F0893639F52C
S1131DD0F80137FE07C060817181828193810C5FB5
S1131DE01F4F08C060817181072E000C880B990B6E
S1131DF00E5F1F4FF32DFF763F2E97FF09C090957E
S1131E008095709561957F4F8F4F9F4FF0683F2E5F
S1131E102AE030E0A3011DD1882E861844C08537FE
S1131E2031F4232D2F7EB22E2AE030E025C0932DED
S1131E30997FB92E8F36C1F018F4883579F0AEC089
S1131E40803719F0883721F0A9C0E92FE061BE2E50
S1131E50B4FE0DC0FB2DF460BF2E09C034FE0AC0D1
S1131E60292F2660B22E06C028E030E005C020E10C
S1131E7030E002C020E132E0F801B7FE07C0608123
S1131E807181828193810C5F1F4F06C060817181D3
S1131E9080E090E00E5F1F4FA301DBD0882E8618F0
S1131EA0FB2DFF773F2E36FE0DC0232D2E7FA22E55
S1131EB0891458F434FE0BC032FC09C0832D8E7E85
S1131EC0A82E05C0B82CA32C03C0B82C01C0B92C73
S1131ED0A4FE0FC0FE01E80DF11D8081803321F4C2
S1131EE09A2D997EA92E09C0A2FE06C0B394B3947C
S1131EF004C08A2D867809F0B394A3FC10C0A0FE18
S1131F0006C0B21480F4280C922C9B180DC0B21495
S1131F1058F4B60180E290E060D0B394F8CFB214E4
S1131F2018F42B1802C0982C212CA4FE0FC0B60163
S1131F3080E390E052D0A2FE16C0A1FC03C088E763
S1131F4090E002C088E590E0B6010CC08A2D867846
S1131F5051F0A1FE02C08BE201C080E2A7FC8DE239
S1131F60B60190E03AD0891430F4B60180E390E0F1
S1131F7034D09A94F8CF8A94F301E80DF11D80814E
S1131F80B60190E02AD08110F6CF222009F44ECE7B
S1131F90B60180E290E021D02A94F7CFF601868141
S1131FA0978102C08FEF9FEF2B96E2E1CCC0FC013A
S1131FB00590615070400110D8F7809590958E0F70
S1131FC09F1F0895FC016150704001900110D8F7E3
S1131FD0809590958E0F9F1F08950F931F93CF9315
S1131FE0DF93FB01238121FD03C08FEF9FEF2CC002
S1131FF022FF16C046815781248135814217530739
S113200044F4A081B1819D012F5F3F4F3183208330
S11320108C93268137812F5F3F4F3783268314C0EB
S11320208B01EC01FB010084F185E02D0995892BDE
S1132030E1F6D80116968D919C9117970196179603
S11320409C938E931697CE01DF91CF911F910F91A0
S11320500895FA01AA27283051F1203181F1E8943A
S11320606F936E7F6E5F7F4F8F4F9F4FAF4FB1E087
S11320703ED0B4E03CD0670F781F891F9A1FA11D82
S1132080680F791F8A1F911DA11D6A0F711D811D83
S1132090911DA11D20D009F468943F912AE0269F48
S11320A011243019305D3193DEF6CF010895462FA7
S11320B04770405D4193B3E00FD0C9F7F6CF462F88
S11320C04F70405D4A3318F0495D31FD40524193F1
S11320D002D0A9F7EACFB4E0A695979587957795AE
S11320E06795BA95C9F700976105710508959B0135
S11320F0AC010A2E06945795479537952795BA95BE
S1132100C9F7620F731F841F951FA01D08952F9296
S11321103F924F925F926F927F928F929F92AF9273
S1132120BF92CF92DF92EF92FF920F931F93CF93C0
S1132130DF93CDB7DEB7CA1BDB0B0FB6F894DEBF57
S11321400FBECDBF09942A88398848885F846E847D
S11321507D848C849B84AA84B984C884DF80EE80C7
S1132160FD800C811B81AA81B981CE0FD11D0FB6D0
S1132170F894DEBF0FBECDBFED010895F894FFCFF4
S113218001010B0501F401E8030A00900120031486
S1132190002C0158021E00FA0026022800C800C2C2
S11321A0012800FA0026022800C800C2012800FA0B
S11321B00026022800C800C2011E00FA00260228D8
S11321C000C800C2011E00FA0026022800C800C28E
S11321D0011E0096002C0114000B5C01F401E803BD
S11321E00A009001200314002C0158021E00FA007A
S11321F0BC022800C80058022800FA002003280066
S1132200C80058022800FA0020032800C800580219
S11322101E009600840314006400E8030A000BA166
S113222001F401E8030A009001200314002C015872
S1132230021E00FA00F4012800C80090012800FAE8
S113224000F4012800C80090012800FA00F40128D5
S113225000C80090011E0096002C0114006400C800
S1132260000A0025303375003E000000F400300100
S1132270B800F4006C01B800BE0AB40A860A000172
S1132280641401060C4B00093D000004C8C8100486
S113229000007A00200015AEFF15AFFF15C015A091
S11122A015A415A9FF15C015A115A415A9FFB5
S9030000FC
