S01700004763634170706C69636174696F6E312E737265635B
S11300000C94B40A0C94D00A0C94D00A0C94D00A20
S11300100C94D00A0C94D00A0C94D00A0C94D00AF4
S11300200C94D00A0C94D00A0C94D00A0C94D00AE4
S11300300C94D00A0C94D00A0C94D00A0C94D00AD4
S11300400C94D00A0C94D00A0C94D00A0C94D00AC4
S11300500C94D00A0C94D00A0C94D00A0C94D00AB4
S11300600C94D00A0C94D00A0C94D00A0C94D00AA4
S11300708E0BE60BE60BE60BE60BE60BE60BE60B4C
S1130080E60BE60BE60BE60BE60BE60BE60BE60BE4
S1130090E60BE60BE60BE60BE60BE60BE60BE60BD4
S11300A09D0BA30BA90BAF0BB50BBB0BC10BC70B64
S11300B0CD0BD10BDA0BE00B00020006E00FF01FB2
S11300C0F83FF81FFC0F7C063C023C003C003C005F
S11300D03C003C003C00000040006000F007F80FCA
S11300E0FC1FF81FF03F603E403C003C003C003CDD
S11300F0003C003C003C000000008000C001E00324
S1130100F007F80FFC1FE003E003E003E003E00363
S1130110E003E003E00300000000E003E003E00389
S1130120E003E003E003E003E003FC1FF80FF00743
S1130130E003C0018000000065000302040403051D
S113014005080D00FE09FE0900017502FA045E208F
S11301500500DC1821079187188724220734B61874
S11301609129230E768D3851CBB044C9B0442D006B
S11301702410958558D9A04449B6255132681100F8
S11301802510968538991225519886A54AA22500EE
S1130190260D7685385AD4A64589162D01270631B1
S11301A0B71803280B938758499444B5280B290C96
S11301B0938618599445952889002A0C56A53851D8
S11301C0260D931625002B0A559558613448610471
S11301D02C08347D388B92012D0715A51883002E29
S11301E008337E38C992002F099784D8D53EC700BA
S11301F0300D9685585A94841E93289300310B959C
S113020085589994843D0D02320E96853843128A9E
S1130210699869613A0C330D968518D7B038A7628E
S11302203224003410968598A19644952CC9926185
S11302304C1300350E96851887B4B268692A264394
S113024002360E968558539856164D14932101374D
S11302500C968518D7B01AA6611A02380F968538FD
S113026043121A9321098DC99000390E968538439B
S113027012DA94252D4613003A0B837E38C9922353
S1130280C992003B0B847D58D194638B92013C0846
S113029095869859D70E3D084695187774183E09E7
S11302A095851869B78E003F0D96853843128A6983
S11302B058CDC108401096853843129A862452922C
S11302C029918704410D9685585A9484C661108DEE
S11302D0014212968518439425A1960C5196845A8E
S11302E0324400430C9685384312AA3D2643024407
S11302F00D968518439425A16FC91001450C968568
S11303001887B43A44697518460C96851887B43A28
S113031044692B00470E9685384312AA4D43A829F9
S11303204B00480B968518A1E330888E01490A9545
S113033085188314F669104A0C9785588318F79426
S1130340651B004B10968518A19644954C4CB2A899
S11303509684014C0996851869BF0E034D0E978447
S113036018A9BA2D15299222D51A4E0D968518A1D1
S1130370B829919468A3314F0C9685384312FA3109
S1130380191200500C96851883121A87256D055191
S11303900EA67D384312FA12494932C401520E9610
S11303A0851883121A87A516D59230530F9685386F
S11303B04312AAF110A762322400540A97841887C2
S11303C02CEE3700550A968518A13F264302561194
S11303D0978418A99A645116659530099334035784
S11303E00E978418A9A7488AA448E99600580E973E
S11303F08418A99A6495B492555235590C97841867
S1130400A99A649534EE065A0A968518D7B0D7741B
S1130410185B0994861883D6B7215C1097841871E9
S11304200EE4400EE4400EE4401C5D09948518433C
S1130430D6B7415E0835B55859520B5F07177C187B
S11304408700600722C7185100610C668538439CF9
S11304500CA3A62C01620D96851869CBA289E2A68D
S11304602C00630C6685384312AAC5644800640BEB
S11304709685B82D8B36DA9425650D66853843123A
S11304800E831A264302660D9685585396A4E120DE
S1130490A58D0067108675388B9664D1140F499822
S11304A00C0900680B96851869CBA2898E01690A2C
S11304B08585583922761A046A0CA575983922362E
S11304C06A5AB2006B0E968518695B12455B544BF1
S11304D0C2006C09958538623F0D026D0E67841861
S11304E08B124552244552A4066E0A668518C9A289
S11304F0898E016F0B66853843123A264302700DCC
S1130500867518C9A2899BB2A45500710B867538EB
S11305108B366ACA9236720B668518C9942569238C
S113052000730D668538431226B212264302740CFA
S1130530868538693848695BB400750E6685185934
S1130540922559922559B404760B658518992D295D
S1130550255904770C678418A9299222A55B02788F
S11305600D668518611265A216256100790D8675E0
S113057018A19BB2A4623224007A09668518C78E3A
S1130580C3007B0C9586584B98466A16A6037C06D6
S11305909187180F7D0D9585186B98A5521A26130F
S11305A0007E0A35B538919248090000000008041D
S11305B06405CFFFFF040010A68558718E0C439A82
S11305C00E4A9A0E0304010FA68538513B7048D396
S11305D04149D361040213B77418B7381EB25216D6
S11305E06551166571A80004030DA68578610E0D8A
S11305F043A876050404109685584392A9E9A0A45B
S113060071162D000405109685384312AAF110A71F
S11306106232240004060A9386184BD49701040717
S11306200DA5851899960E52D8691004080C968564
S11306307863DA4B164D000409149784385B9445AB
S11306405994454B14499114490B00040A14978496
S113065018511665511665C31245522445D2020439
S11306600B10978418B7B8A249B5288BB2280B048D
S11306700C10B5857875209392929644954C0B0492
S11306800D0FA6855871146AA74489B64D0C040E43
S113069011A685186132E440684C06B53224000482
S11306A00F0CB5751899BF0D53180104100E9685DB
S11306B0585A9484C661108D0104110F96851883CD
S11306C092560725340E0B0004120F9685188312D8
S11306D01A8725340E0B0004130B9685188750EDEA
S11306E02B00041414A77C584316655116D5A22C6C
S11306F0CAA22C19063504150D96851887B43A2814
S1130700697518041612978418512455DAB6A42969
S1130710922229920A04170F9685384312A6353976
S113072015932101041810968518A1764AA44489CA
S113073094681303041911A68518613224A1764A1A
S11307409468DBC400041A11968518A19644954C4C
S11307504CB2A8968401041B1296855843922559DD
S11307609225599225992806041C0F978418A9BA32
S11307702D15299222D51A041D0C968518A1E33053
S1130780888E01041E0D9685384312FA3119120021
S1130790041F0A96851887D01F0304200D96851818
S11307A083123A0E4B5A0504210D9685384312AA3A
S11307B03D26430204220B978418872CEE3700044D
S11307C0230D968518A1631265622B0004241297E9
S11307D08478E1A044911449915419C43803042540
S11307E00F95851899969492AC1225352D042615EB
S11307F0B77418611226611226611226611226C38B
S1130800101704270B968518A16332A81D04281419
S1130810978418512445522445522445522445C3F3
S113082020042915B77418512445522445522445EF
S1130830522445C32017042A0F97841873F3909504
S1130840B2288B8604042B11968518A17188A444C0
S11308504AA4444A8628042C0D96851869EBA08482
S1130860C66101042D0F968518435C4D06B5980C9E
S11308701100042E14978418991245522445832498
S1130880455224459A02042F0F95853883664B867A
S11308902829695A0004300D668538439C0CA398B6
S11308A00C0204310F9685B8C990A483123A2643EA
S11308B00204320E66851883120E4B280E0B0004B8
S11308C0330A66851887506D0504340B767D5853BA
S11308D07F19863004350E66853843120E831A2636
S11308E0430204360F6784185124550629698AA4E3
S11308F00204370E668538431246B3980C09000487
S1130900380D668518A136254AB489010439119633
S113091085186132E440A84D89126D6200043A0CD6
S113092065851899944C954C0B043B0E6685584389
S113093092255992259918043C0D658518D9B2243D
S11309404AA26901043D0B668518A1380CA2310442
S11309503E0C66853843123A264302043F0A6685F4
S11309601887D0630004400E867518C9A289E2A6D0
S11309702C690A04410D6685384312AAC5644800EF
S113098004420A6585188314760204430E8675189A
S1130990A19BB2A462322400044413B77478717129
S11309A050A2488AA448AA0C629C0104450E66859C
S11309B018611265A216256100044610867518593F
S11309C092255992255932AC0504470B668518A126
S11309D04D59D202044810678418512445522445C5
S11309E052340C0204491187741851244552244589
S11309F052340C7201044A0E678418733C64A52CAB
S1130A001A1200044B0E668518A13844522225435D
S1130A1014044C0D65861861382499362800044D59
S1130A200C658618431A8DE1A000044E10678418E3
S1130A3099124552344852A42900044F0D66853852
S1130A40C3282683928901045011968558710E0D8E
S1130A5049380C6A980C0900045111968538513BA9
S1130A603224E130A861322400045214B67538E10E
S1130A7020A58924255992255992A5610204530D74
S1130A80968578610E0D43A8B60204540C66853829
S1130A90C33A44693C0804550E668538431226B2AD
S1130AA012264302045609838638A1D46504570DDF
S1130AB09585185112E580D8691004580CA47678ED
S1130AC0B1D62649890204590F6784385B94454B93
S1130AD0144991B400045A10678418511665C3125E
S1130AE04552242D00045B12968538E120A5892403
S1130AF025599225599205045C0E958558598E64A2
S1130B00523255322D045D0F968558718E84DA94D5
S1130B1028D12606045E12B675186132E440E8A6B0
S1130B202CA9980C0900045F0C85751899B7610A03
S1130B30230004600E97843896D453244552C5028A
S1130B4004610F67843859124552244552C5020482
S1130B506211978458E120C6F19095B2288B8604DF
S1130B60046310978458717110E3212B65D19000B0
S1130B70046414978418D91065511665C31265511D
S1130B801665D90004650F678418D91065C312650A
S1130B9051960D04661297847869122659298B148C
S1130BA0258AA4482A04670E6784786992951425D7
S1130BB08AA40204681497841851166549292925C2
S1130BC0252D519A22A90004690D66851851A5178F
S1130BD06D49A424046A129784388394455925DC0A
S1130BE092A6488AA402046B0E678458631226D91D
S1130BF0A0449154046C14978418C9B0644A2625FF
S1130C00C920454B8B52511A046D10678418D112B8
S1130C1025C920454B8BD200046E13C6753859B4D0
S1130C20234312A6D19C2643124F00046F12C675AB
S1130C303859B41386248CE634199278020470125D
S1130C40978418512445522445526510E31A000430
S1130C507111877418512445522445526510E30CD0
S1130C6004720F96853843121A87413426430204CE
S1130C70730E66853843120E8328264302047412C9
S1130C80968518A19664499425599225619A010480
S1130C90750E668518A1964459922561060476134B
S1130CA0A685185116E540A8255196644998660012
S1130CB00477129685185116E540A8255196644983
S1130CC09801047815B774386912266152512A4A7A
S1130CD045A928DDE4500104791187743851A254E0
S1130CE0948A5251BAC9A102047A10B77C78E1A05F
S1130CF04491EA5365103300047B0F877C78E1A0AC
S1130D0044916AAA0C6206047C14B784B8D120E525
S1130D10B0A2A45224455224552C00047D12B78459
S1130D20B8D120E5644549A5488AA48A05047E1300
S1130D30A784388398838A924A9114499154B100C4
S1130D40047F13A784388398D3A2488AA44A5352B1
S1130D504B220004800DB6753843125A3B0F693894
S1130D6004810D767D384312AAF190560004820C5A
S1130D70559D584996744B220004830936C5B8C35F
S1130D80A00204840826CD38532604850826CD18ED
S1130D90436404860826CD58C324048811D77438C4
S1130DA06912A549CE2F6912A5490004890DD5758C
S1130DB0389194D8B9D59650048A17C774186134F9
S1130DC0E45098644A9434255A1226A19C260004BF
S1130DD08B15B774186134E45098644A9434255AD6
S1130DE012CA6902048C12968538E190A5E910654F
S1130DF0499664C99000048D0E668538E190A54338
S1130E0094254302048E0F96851883129A122D1985
S1130E1012B50A048F0F86751883124A89960C89B5
S1130E205A0504900BA685B8C3A0F62B0004910ABA
S1130E307685B8C3A0760504920E968538839225EC
S1130E406938A68D0004930C66853883920D615A27
S1130E5004049412A77C38C3129707294CC2241C9B
S1130E60B25001049510777C38C3120F5298844312
S1130E70162A00049616B8741851256A298E49A9B1
S1130E8025AA449528D2811C080497138874185104
S1130E90252A0D5A526A89221DC88100049811B668
S1130EA075384312A6A5391593210B430004990FF5
S1130EB0867538431246B3980C591802049A12B630
S1130EC07518A19644954C4CB2A896846901049B6C
S1130ED00E8575185152D292A8928505049C0E96DF
S1130EE08518A1A597214AFA2806049D0E6685183F
S1130EF0A15219A2A42D0903049E10968538D990F5
S1130F004449261A932CAA05049F109685386938FB
S1130F1025512513932CAA0504A00F9685185A125F
S1130F205532D19864512D04A10D668518522513AC
S1130F30932CAA0504A214B6751859922559922522
S1130F40839225599225995A04A3108675185992AB
S1130F50258392255992A90504A40D968518D110CC
S1130F60F53444FD0904A50D668518D1104543D414
S1130F70270004A616B77418431665511665D112D6
S1130F80455224455239540004A711877418431656
S1130F9065D11245522495430504A812A67D384311
S1130FA012AA91525222254A862C1E04A90E767D3D
S1130FB0384392464A2919B27804AA0FB6753843C1
S1130FC012AA3D2643964A0004AB0E867538431296
S1130FD0AAC564C8520904AC0CB77418872CEEB3C4
S1130FE05C0204AD0D87741807A91697E512000476
S1130FF0AE0D978418A99A649534EE0604AF0D8754
S11310007418A99A6495346E0304B00F978418A9D0
S11310109A6495341CC4B80604B10F877418A99A4D
S11310206495341CC4380304B213B6751859924538
S1131030499684952C89B224530B04B30F867518F2
S113104059948495284B32B50004B414B6751853DA
S11310509225599225599225599225835A04B510FF
S11310608675185392255992255932A80504B6114C
S1131070B675185992255992259125ADAA0504B73C
S11310800E86751859922591254DD50204B80E96F1
S11310908518A14BA424CA12750D04B90C668518D1
S11310A0A1255196A81A04BA0C96851869CBA28971
S11310B08E0104BB0B958618611793660B04BC1153
S11310C09784785BA6644A960C535CCB160004BDE7
S11310D00E678418D1524B8629CEB20504BE12B7CE
S11310E074785BA6644A960C535CCBD6580104BF53
S11310F010877418D1524B8629CEB235560004C0DD
S11311000A9387184BD4970104C113B7843859B68E
S11311104325A9D2B6254D9114490504C2119784DB
S11311203859B64325A932484953241504C313B684
S11311307518A19644954C4CB2A8968469B40004E1
S1131140C40E85751899944C954C0B230504C5164B
S1131150B77458439445599445599445591226A156
S11311609C260004C61187745843944559944559E4
S113117012CA690204C70EB67518A1E330888E69D5
S1131180B40004C80E867518A1380CA2318D16005F
S113119004C916B77418611226611226C312266197
S11311A01226A19C260004CA11877418611226C352
S11311B012266112CA690204CB0EB67518A13765EE
S11311C0498B629A0004CC0E867518A14D59D250F1
S11311D04C130004CD16B874186992269AD253257C
S11311E0AAA4499AA43A10270004CE0E8675185969
S11311F062E9B72453C30404D011A685186132E40C
S1131200901625A1380CA21804D1119685186132C4
S1131210E4C81027C3A8294B0004D210A68538516E
S11312203BA44549280E83280604D30F96853851DC
S11312303B3427C3A8294B0004D414978438CA101C
S113124065511665D13264511665D11004D50F6706
S1131250843883182583126551C50204D611A685E6
S1131260186132E4C0214D07254D870104D7129639
S113127085186132E4C89084C3A086C9900004D85C
S1131280109685384312A6E93088C664480004D90C
S11312900E6685384312A6C32026430204DA12A63A
S11312A08538513B3224613A0CA2980C090004DBC6
S11312B011968538513B3224613A0C623224000481
S11312C0DC14B784584998E45049AAB46D495324AE
S11312D045520104DD129784584998E45049AA0CF8
S11312E052D214490504DE11A68538513B322461DB
S11312F01ACD6232240004DF10968538513B322423
S113130061348BC9900004E00E968518D7B038A7D5
S11313106232240004E10D867518C7E29C8AC990E4
S11313200004E20E968518E7509B1225DA44310436
S1131330E30E868518E7509B1225DAC40004E410F6
S1131340A68538513B106A53A2449B280604E50F36
S1131350968538513B106A53A2449B1804E60FA6A5
S11313608538513B3224A1C764480004E70F9685B1
S113137038513B3224A16332240004E80F968538A7
S113138043121A87413426430204E90E6685384322
S1131390120E832826430204EA12A68538513B32F2
S11313A024A1380CA2980C090004EB11968538513D
S11313B03B3224E130886232240004EC10B68538D4
S11313C0756488ABC9A01693210204ED0D85863897
S11313D0E5218DC670500004EE0F968518E7D0A65F
S11313E02CA9980C090004EF0FA67518E7D04D59E5
S11313F0523119120004F010A68538513B10DA94CA
S1131400251593210104F110B67538513B10BA2902
S11314104B2A26430204F211A68558952807429BBD
S1131420B2A46232240004F311B675589528074219
S1131430376549C564480004F40DA68538513B104E
S1131440DA94256D04F50D968538513B10DA942510
S11314502D04F812A68538513B108A4324255222C4
S113146025431404F911968538513B108A432425E9
S11314705232440105000C9685B82DC3E8980C023D
S113148005010C9585982D83E6960C0105021297AB
S11314908498716D88B2284BB4444B924101050382
S11314A00E968578696DEA8B94244302050410979F
S11314B084385BB9A803499884499A0005050E66E7
S11314C085385A9466529684090005060FB6753815
S11314D05396B6C969AA86090005070E867538535E
S11314E0966672AA8609000508149784585B944589
S11314F0599445599494925222260005090F678401
S1131500585B9445599494123101050A1497841830
S11315105994455994458394255AA2256202050B92
S1131520106784185994458394255A222600050C83
S11315300E96855853A6B68D49162D00050D0E66D8
S113154085384312AAD9980C0900050E0F97841800
S1131550872CEE122661924600050F0D65851883CF
S11315601456A2244B00000011241FBECFEFD4E078
S1131570DEBFCDBF11E0A0E0B1E0E0EEFDE202C0CD
S113158005900D92A434B107D9F723E0A4E4B1E0A7
S113159001C01D92AB3AB207E1F797D20C94EE1654
S11315A00C94000081E38FBD82E18EBD82E390E064
S11315B099BD88BD84EF91E09BBD8ABD0895F2DF9B
S11315C02FEF30E742E0215030404040E1F700C0C7
S11315D0000088E592E09BBD8ABD82E390E099BD5E
S11315E088BDEFEFF9EF20E0E150F0402040E1F753
S11315F000C000002AEE31E03BBD2ABD99BD88BD84
S1131600EFE5FAEE3197F1F700C000004EEF51E03C
S11316105BBD4ABD99BD88BDEFE3FCE93197F1F7A5
S113162000C000003BBD2ABD99BD88BD8FE59AEE80
S11316300197F1F700C0000088EC90E09BBD8ABDE3
S113164084E190E099BD88BD9FEFE0E7F2E091501E
S1131650E040F040E1F700C000008CEB92E09BBD5D
S11316608ABD86E490E099BD88BD2FEF39EF40E054
S1131670215030404040E1F700C000001EBC3A98C1
S113168008959DCF6A3261F030F46932A1F580E0AB
S113169090E050E025C06B3239F06C32B1F02BC0D1
S11316A080E090E050E013C0242F30E0A4E6B0E0E6
S11316B00E94D81624EF31E040E050E00E94B016BA
S11316C0233218F4822F0197F1F781E008958417EB
S11316D09507DCF72AE12A95F1F700C00196F7CFC8
S11316E08417950794F7EFECF7E03197F1F700C012
S11316F000000196F5CF80E008950F931F93CF93D8
S1131700DF93D901062F10E0F801B897E432F10510
S113171008F05CC0E85CFF4F0C94D216D59AD49ABA
S1131720D39AD29ABC9ABB9ABA9AB99AD79AB89AC7
S1131730D69AD19AD09AD99A45C0442311F0DD9A09
S11317404CC0DD984AC0442311F0DC9A46C0DC98B2
S113175044C0442311F0DB9A40C0DB983EC04423CC
S113176011F0DA9A3AC0DA9838C0442311F0C49AD6
S113177034C0C49832C0442311F0C39A2EC0C39815
S11317802CC0442311F0C29A28C0C29826C0442316
S113179011F0C19A22C0C19820C0DF9A442341F0BD
S11317A004C0DF98442319F0D99AD99A16C0D9985D
S11317B0D99813C0442311F0C09A0FC0C0980DC02B
S11317C0442311F0DE9A09C0DE9807C09D01EC01A4
S11317D059DF811102C081E08A8F81E0DF91CF91CE
S11317E01F910F9108952DE73BE041E354E16EE032
S11317F071E085E493E062D285E493E00E9493155E
S113180060E085E493E00C949D15EF92FF920F93B2
S113181068E371E085E493E0E5D585E493E02CD2B8
S113182020E031E045E160E085E493E08AD588ED8D
S1131830E82E80E0F82E00E120E148E062E385E450
S113184093E0A5D198EFE92E90E0F92E20E148E04D
S113185062E485E493E09BD128E1E22E21E0F22EBC
S113186020E148E062E585E493E091D138EBE32E92
S113187030E0F32E20E148E062E685E493E087D18E
S113188085E493E00F91FF90EF900AC2CF93DF932A
S113189000D0CDB7DEB71A82898385E493E0ECD11A
S11318A09E012F5F3F4F45E166E085E493E049D513
S11318B085E493E0F5D10F900F90DF91CF910895D7
S11318C08F9A8E9A8D9A979A969A959AA098A1989B
S11318D0A298A398A89AA99AAA9AAB9A319A309AEC
S11318E08A9A8B9A8C9A949A329A7DDF8ECFAF9291
S11318F0BF92CF92DF92EF92FF920F931F93CF93F9
S1131900DF93979A969A95988FE19EE40197F1F761
S113191000C0000063B363FBAA24A0F8B12CB50196
S113192091E06927660F771F13B312FBCC24C0F82C
S1131930D12C21E0C2268601062B172BB801660F95
S1131940771F13B316951170C12F40E0D42F8E0169
S113195081E00827062B172B000F111F63B361705A
S1131960C1E06C27062B000F111F979A9698959A41
S11319708FE19EE40197F1F700C0000063B363FBBD
S1131980882780F990E021E08227802B912B880F13
S1131990991F63B362FBEE27E0F9F0E041E0E4272E
S11319A0BF01682B792BFB01EE0FFF1F83B381FB73
S11319B0EE24E0F8F12CB70181E068276E2B7F2B31
S11319C0660F771F83B381708C27682B660F771F90
S11319D09798969A959A8FE19EE40197F1F700C043
S11319E0000083B383FB442740F950E091E049278A
S11319F0462B572B440F551F83B382FB222720F914
S1131A0030E081E02827C901842B952B9C01220F0B
S1131A10331F83B381FBAA27A0F9B0E0CD0141E0D5
S1131A208427822B932B880F991F23B32170C227FD
S1131A308C2B8032910589F190F48430910549F121
S1131A4038F481309105A9F1029789F582E332C017
S1131A508830910501F1409751F584E32BC081153D
S1131A6021E09207F1F040F480349105C1F0803810
S1131A709105E9F483E41EC0811524E0920799F0EE
S1131A80811548E0940789F08115924081F488E338
S1131A9011C083E30FC08DE40DC085E30BC086E362
S1131AA009C087E307C089E305C080E303C080E081
S1131AB001C081E3DF91CF911F910F91FF90EF90CF
S1131AC0DF90CF90BF90AF900895FADE399A0FDF80
S1131AD0C82F882319F0D5DD8C2FD8DE299AF7CFAB
S1131AE06F927F928F929F92AF92BF92CF92DF922A
S1131AF0EF92FF920F931F93CF93DF937C01C62F36
S1131B00742E58016C0184E6C80ED11CF601608065
S1131B10162F120F01E0040F212FC70107D58823C8
S1131B2039F1D1E04701F3E68F0E911CC117F1F0B2
S1131B30F50184918D2319F0F601608209C0F40146
S1131B40808181110BC081E0611080E0F601808307
S1131B5000E021E0472D6C2FC70166D4CF5FDD0F75
S1131B6029F7FFEFAF1ABF0AD1E0E0CFF601608298
S1131B70DF91CF911F910F91FF90EF90DF90CF9065
S1131B80BF90AF909F908F907F906F9008958F92A9
S1131B909F92AF92BF92CF92DF92EF92FF920F93F8
S1131BA01F93CF93DF935C01962EC42F822ED42FE4
S1131BB0D00F260F0D2FBAD4882399F087E0880D13
S1131BC0C82EC694C694C694D12CCD1751F0870163
S1131BD0282D4C2F692DC50183DFEC0CFD1CCF5F34
S1131BE0F4CFDF91CF911F910F91FF90EF90DF9091
S1131BF0CF90BF90AF909F908F900895AF92BF9277
S1131C00CF92DF92EF92FF920F931F93CF93DF93C4
S1131C10EC01ADA0EEA0E881F981B188FE2CC12CC5
S1131C20D12CE881F98120890BA11CA188E0289F8F
S1131C30A00111244C9DC0014D9D900D5C9D900D03
S1131C401124080F191F4F2D60E0CE013FD7F394E4
S1131C508F2D8E198A1528F48FEFC81AD80AFB1411
S1131C6000F3DF91CF911F910F91FF90EF90DF90E0
S1131C70CF90BF90AF900895FC01A081B1815096A0
S1131C809C9145A1949FA001112483E0440F551F0A
S1131C908A95E1F760E070E083A194A10C94E716C3
S1131CA0CF93DF93EC01AADFCE01DF91CF914FC731
S1131CB024E0FC01208384E491E00895CF92DF9234
S1131CC0EF92FF920F931F93CF93DF931F92CDB7A1
S1131CD0DEB77C016B0189019A0146EF54E161EBA7
S1131CE075E10E948D16CE010196E2DF860125EB97
S1131CF032E14981BC01C7011FD50F90DF91CF911B
S1131D001F910F91FF90EF90DF90CF900895FC0109
S1131D10E60FF11D849190E0982F88273196E49185
S1131D208E0F911D0895213039F020F0223031F4C6
S1131D30841B0895840F0895860F0895861B0895C3
S1131D40213039F020F0223031F4861B0895860FBB
S1131D500895841B0895840F089580E008950F93D7
S1131D601F93CF93DF93EC018B01FB018491888354
S1131D703196E491E983FB013296E491EA83FB0115
S1131D803396E491EB83FB013496E491EC83FB01FD
S1131D903596E491ED83FB013696E491EE83FB01E5
S1131DA03796E491EF83FB013896E491E887FB01D1
S1131DB03996E491E987FB013A96E491EA87FB01BD
S1131DC03B96E491EB87FB013C96E491EC87FB01A5
S1131DD03D96E491ED87FB013E96E491EE87FB018D
S1131DE03F96E491EF87FB017096E491E88B61E103
S1131DF0C8018DDF9A8B898B63E1C80188DF9C8BD6
S1131E008B8B65E1C80183DF9E8B8D8BDF91CF9136
S1131E101F910F910895DC0118964C911897ED913C
S1131E20FC911197249130E0042E02C0359527953A
S1131E300A94E2F7842F860F883010F4E22F0DC045
S1131E4031961196FC93EE93E49198E0941B01C0B3
S1131E50EE0F9A95EAF7E22B885018968C9381E05E
S1131E6090E001C0880F6A95EAF781508E230895A7
S1131E700F931F93CF93DF93EC018C01065C1F4FEC
S1131E807BAF6AAFFC01EE5BFF4F10823996608135
S1131E90C801C1DFFE01E05CFF4F80833C96608196
S1131EA0C801B9DFFE01EF5BFF4F8083B3969081D9
S1131EB0B0979083CB5BDF4F81E0911180E0888302
S1131EC0DF91CF911F910F910895CF93C62FA3DF78
S1131ED0C15021E030E001C0220FCA95EAF7821B0D
S1131EE0CF9108952F923F924F925F926F927F927B
S1131EF08F929F92AF92BF92CF92DF92EF92FF9216
S1131F000F931F93CF93DF93CDB7DEB727970FB609
S1131F10F894DEBF0FBECDBF9F838E83762E498398
S1131F20FC0116AD57ACE05CFF4FFB83EA838A5B90
S1131F309F4F9D838C83CE80DF8093E4C90ED11C98
S1131F40EE80FF80E4E6EE0EF11CAE80BF80F5E487
S1131F50AF0EB11C8E809F8084E4880E911CEA81B0
S1131F60FB816080611A472C671408F4462CEE81CB
S1131F70FF8125ACEC81FD810081202F452D612F4F
S1131F80EE81FF8184ADDCDE382E202F452D612FBC
S1131F90822DC9DE482FF981FF2311F0F40105C019
S1131FA0F6018081811109C0F5018081F7018083E8
S1131FB0242D632D8E819F8137D2761420F07618DC
S1131FC0539410E0CCCF170DEE81FF8116AF57AEBE
S1131FD027960FB6F894DEBF0FBECDBFDF91CF9129
S1131FE01F910F91FF90EF90DF90CF90BF90AF9033
S1131FF09F908F907F906F905F904F903F902F9025
S113200008958F929F92AF92BF92CF92DF92EF92F8
S1132010FF920F931F93CF93DF93EC016C018AE33C
S1132020C80ED11CCE0124DFFE01EF5BFF4FE08020
S11320303C966081C60149DF982EFE01E25BFF4FAA
S11320406081C60142DFB82EFE01E15BFF4F608173
S1132050C6013BDFA82EFE01E05CFF4F0081101695
S11320600CF06DC03696F080BE0CB1942F2D4B2D24
S1132070692D8CAD65DE182F8CAF2F2D4B2D692D5E
S11320808DAD51DE8DAF91E0F916B1F0F91678F00F
S1132090E2E0FE16B9F0F3E0FF121FC02E2D210F6F
S11320A0982F901B01E0080F81E0890F18C0202FA2
S11320B0210F0E2D080F13C0FE1821E0210F080F69
S11320C01F0D0DC091E0392F301B21E0210F9E1907
S11320D001E0080F890F130F02C0082F212F482F8A
S11320E0612FCE0123D2882351F11EAE1FAE8E0183
S11320F0075B1F4F4E018AE4880E911CF801608132
S1132100C60189DEB82EF4016081C60184DEF82E92
S113211040E06B2DCE01E6DE41E06F2DCE01E2DE24
S113212061E0C60178DE8111F3CF8FAD8E1534F3F3
S1132130FE01EC59FF4FCC5BDF4F888180838A2DF1
S1132140DF91CF911F910F91FF90EF90DF90CF908F
S1132150BF90AF909F908F900895EF92FF920F934E
S11321601F93CF93DF93FC0126A937A9295E3F4F24
S11321706F3F710509F020F56136710518F0E65AD4
S1132180FF4F06C06134710538F0FC01E85AFF4F77
S113219080819181280F391FC9010196FC01449166
S11321A0442309F43AC0F901449150E064177507D7
S11321B011F4019634C0FC018491280F311DECCF39
S11321C08B01FC01E45AFF4FC081D181C20FD31FA0
S11321D07E0160E0C7019BDDC80FD91F62E0C70123
S11321E096DDF4E0EF0EF11C8017910790F3FE01E9
S11321F0849190E0982F88273196E4918E2B009754
S113220061F00817190719F4CE01039608C0FE01FE
S11322103296E491CE0FD11DEACF80E090E0DF91B9
S1132220CF911F910F91FF90EF900895EF92FF923D
S11322300F931F93CF93DF93EC01062F142F790193
S1132240FC01EA5BFF4F8081813089F050F08230DD
S1132250A1F08330B9F4E8ADF9ADCE010995080FCA
S113226011C0E8ADF9ADCE010995180F0BC0E8AD6A
S1132270F9ADCE010995081B05C0E8ADF9ADCE0155
S11322800995181B0CAF1DAFB701CE0166DF00978F
S113229049F0BC01CE01DF91CF911F910F91FF90C6
S11322A0EF90AFCE80E0DF91CF911F910F91FF901F
S11322B0EF900895AF92BF92DF92EF92FF920F9347
S11322C01F93CF93DF93EC01162F042FB22ED32E3E
S11322D0A3D2EB2CFD2CD12C5E0126E4A20EB11C62
S11322E0F70161917F01EA81FB81CE0109958F3F5E
S11322F0FFEF9F07D9F08E3F2FEF920789F39C01E0
S1132300402F612FCE0192DFF5019081913049F089
S113231030F0923041F0933039F4081B05C0180FA7
S113232003C0080F01C0181BD80EDACF8D2DDF9122
S1132330CF911F910F91FF90EF90DF90BF90AF90DE
S11323400895E7ECF3E1DC011396FC93EE93129706
S1132350B1CFCF93DF93FC0126A937A9232BC9F171
S1132360EC5AFF4F2081DC01A05ABF4F2C933196C9
S113237050813C965083EC01C15ADF4F388133239E
S113238041F1313069F42997388123170CF43C93D7
S1132390DC01A95ABF4F8C918517DCF4808319C0E6
S11323A0EC01CF5ADF4F488122963881822F220FC9
S11323B0990B632F032E000C770B640F711D47FDDF
S11323C07A958617970714F4430F4C9335170CF43A
S11323D03083DF91CF9108952DEA3EE0FC0131AFC7
S11323E020AF0895CF93DF93FC0126A937A92617C0
S11323F0370751F0EC0177AB66AB895B9F4FAFDCDD
S1132400CE01DF91CF91A5CFDF91CF9108950F93A6
S1132410DC0199963C919997431B5F96ED91FC9151
S1132420909709950F9108950F93DC01802FFD017A
S1132430E25AFF4F9081992309F468C0222309F4DA
S113244065C0223048F0023019F46F5F621B04C08B
S1132450033011F44F5F421B082F017080FD28C028
S1132460D0968C91D097481708F450C0D1968C918F
S1132470D197481708F04AC09F969C919F979E96C3
S11324808C919E97260F261730F4691718F42FEFB6
S1132490290F03C0682F6917C8F58217B8F56817A4
S11324A008F4682F291708F4922F292F261B25C01A
S11324B09E968C919E97681748F19F968C919F9752
S11324C0681720F5D1969C91D197D0968C91D0978E
S11324D0240F241730F4491718F42FEF290F03C0E1
S11324E0482F491798F4821788F4481708F4482F9E
S11324F0291708F4922F292F241B9196ED91FC9112
S113250092970480F581E02DCD0109950F910895EE
S1132510461730F4821740F081E0241730F002C0EF
S11325208217D0F380E0089581E00895FF920F931D
S11325301F93CF93DF93EC01162FF22E202F69A95E
S113254088A9E6DF882351F02F2D412F6FA58EA592
S1132550DF91CF911F910F91FF90DACF80E0DF914F
S1132560CF911F910F91FF900895EF92FF920F93D7
S11325701F93CF93DF93EC01742F7770E1E0F0E0C9
S1132580072E01C0EE0F0A94EAF73E2F7C0184E681
S1132590E80EF11CD7018C91823028F41E2F813073
S11325A019F430E001C010E050E0487F8BA19CA1F9
S11325B0A881B9815096FC91F49FD001F59FB00D8C
S11325C01124A60FB11DA80FB91F01110BC08C91C6
S11325D0812B83278D932150D1F71CC0110F330F0A
S11325E02223C1F09C91912B93279C937F5F77705A
S11325F021507111F3CF8FA1A80FB11DF701808174
S1132600823020F4813021F031E002C031E0E8CFA3
S113261011E0E6CFDF91CF911F910F91FF90EF90E2
S11326200895FC01A081B18195A1892F880F880F9D
S1132630880F80A750968C915097803208F08FE1D4
S1132640880F880F880F87A326A1822F880F880FF1
S1132650880F81A751963C915197422F50E0490F22
S1132660511D632F70E06417750714F4932F921BA8
S113267082A728E0929F800D112483A780EF84A76E
S113268054968D919C915597813F910508F484A7A8
S113269056968C9185A708950F93B9DE0F910895EE
S11326A00F93CF93DF93EC010DA92BA94CA96AA931
S11326B03DDFFE01E25AFF4F811102C0108216C0B5
S11326C081E080838AA99EA5981708F48EA78BA918
S11326D09FA5891708F48FA78CA998A9981708F4BF
S11326E088AB8DA999A9891708F489ABDF91CF919B
S11326F00F910895FC0116A684A587A782A580AB37
S113270083A581ABCF01CCCF8CCFDC01D2961C92B8
S1132710D297D4961C92D4978FEFD3968C93D39759
S1132720D5968C93D5979196ED91FC9192970280D2
S1132730F381E02DCD0109940F931F93CF93DF9381
S1132740EC011FAA1EAA38A32F8F7CA36BA34DA351
S11327501EA2FC01ED5BFF4F1082B09610823196F1
S113276081E08083319680831AA309A3D801ED9177
S1132770FC91CE010995CE01C8DFCE012DDECA5BE6
S1132780DF4F1882DF91CF911F910F910895FC01C3
S11327906623D9F16A30C9F1818D811124C06C3F5F
S11327A020F085E0818F61701AC0683F20F084E0DA
S11327B0818F637014C0603F20F083E0818F677065
S11327C00EC0603E20F082E0818F6F7008C0603CD4
S11327D020F081E0818F6F7102C070E01BC070E057
S11327E0738B628B15C08150818F2289338996E067
S11327F0220F331F9A95E1F76F73A901462BBA0193
S1132800738B628B811104C005C06FEF7FEF02C030
S11328106EEF7FEFCB010895FC01118E0895462FD2
S1132820DC011896ED91FC91199720E030E060E20C
S113283009949A01DC011896ED91FC911997462FA1
S113284067E10994CF93DF931F92CDB7DEB7698315
S1132850AE014F5F5F4F61E0ECDF0F90DF91CF91EE
S11328600895CF92DF92FF920F931F93CF93DF933C
S1132870EC01142F6901683109F44CC028F4643167
S1132880B9F1673169F14AC0693109F441C0603274
S113289009F044C06AE41FD23BC04F2D4170602F41
S11328A0CE0119D2F6940F5F0834B9F7E881F981A3
S11328B046856CE2CE010FD241E060914403CE0123
S11328C00AD248EC6CE2CE0106D2E881F981478550
S11328D06CE2CE0100D240E060914403CE01FBD112
S11328E01123B1F0F601F1906F01115000E4D5CF3E
S11328F0E881F981418169E4EED140E068E4CE01E8
S1132900EAD140E069E4CE01E6D188E4809344034F
S113291081E005C04423C9F389E4F8CF80E0DF9166
S1132920CF911F910F91FF90DF90CF900895462F84
S1132930DC011696ED91FC91179720E030E065E1FB
S113294009949A01DC011696ED91FC911797462F94
S113295067E10994EF92FF920F931F93CF93DF9354
S11329601F92CDB7DEB77C018B01D8016C91673122
S1132970D9F078F4653190F1F80141814983D701A8
S11329801696ED91FC91179720E030E0C701099568
S113299022C06A3198F06E3F09F5F80141814983FC
S11329A069E2C70198D117C0F80181818983AE011A
S11329B04F5F5F4F61E0C701C4DF0DC00F5F1F4F62
S11329C0D7011696ED91FC91179720E030E040E096
S11329D0C7010995CACF0E5F1F4FC7CF0F90DF9174
S11329E0CF911F910F91FF90EF900895EF92FF9276
S11329F00F931F93CF93DF93EC01162F042F7901CC
S1132A00663159F028F4643191F0653131F01CC01D
S1132A10673159F06A31C0F40AC060E0CE01FFDECC
S1132A20602FCE010FDF81E010C061E0F8DEE885A1
S1132A30F9859701402F612FCE01DF91CF911F912E
S1132A400F91FF90EF90099480E0DF91CF911F9157
S1132A500F91FF90EF900895FC0171836083FB0157
S1132A602289FC01248B0895CF93DF93EC01EA853E
S1132A70FB8520E030E040E068E20995EE81FF81CB
S1132A8020E030E040E064E1CE01099541E06BE4F0
S1132A90CE0121D1E881F981448169E2CE011BD1C3
S1132AA040E06BE4CE0117D1E881F981448169E209
S1132AB0CE0111D141E06BE4CE010DD1E881F98161
S1132AC0458169E2CE01DF91CF9105C10F931F9338
S1132AD0CF93DF9300D000D01F92CDB7DEB76C83C5
S1132AE04D832B831A830983DC011496ED91FC91A9
S1132AF015979E012F5F3F4F41E06FE009950F90BE
S1132B000F900F900F900F90DF91CF911F910F9125
S1132B100895DC011496ED91FC91159720E030E0C6
S1132B2040E069E00994DC011496ED91FC9115975D
S1132B3020E030E040E06AE00994462FDC0114967E
S1132B40ED91FC91159720E030E06BE00994DC01F5
S1132B501496ED91FC91159720E030E040E060E19F
S1132B600994EF92FF920F931F93CF93DF93EC019D
S1132B7079016A3009F443C038F4693009F0A3C01C
S1132B8064E171E069DF9DC06B3009F458C06F30B7
S1132B9009F099C0F90100811181EE81FF8120E0E3
S1132BA030E040E068E1099563E1CE01C0DEF70161
S1132BB06481686BCE01BBDEA8016DE3CE01C1DE8A
S1132BC0EE81FF8120E030E040E069E1CE0109952B
S1132BD0EE81FF8120E030E041E068E1CE0109951B
S1132BE060E0CE01A4DEF7016481686BCE019FDE54
S1132BF0A801435C5F4F6DE3CE01A3DE5AC034DF0E
S1132C00EE81FF8120E030E040E068E1CE010995EB
S1132C106BE371E0CE019EDEEE81FF8120E030E0C7
S1132C2040E069E1CE010995EE81FF8120E030E0CA
S1132C3041E068E1CE01099562E371E038C0EE81BC
S1132C40FF8120E030E0411119C068E109956FE28D
S1132C5071E0CE017FDEEE81FF8120E030E040E0D4
S1132C6069E1CE010995EE81FF8120E030E041E089
S1132C7068E1CE0109956FE271E019C040E068E1B6
S1132C8009956CE271E0CE0165DEEE81FF8120E002
S1132C9030E040E069E1CE010995EE81FF8120E05A
S1132CA030E041E068E1CE0109956CE271E0CE01CB
S1132CB051DEEE81FF8120E030E041E069E1CE01A8
S1132CC0099581E001C080E0DF91CF911F910F91C0
S1132CD0FF90EF900895DC011A96ED91FC911B97FB
S1132CE020E030E0099480E00895FC011182108214
S1132CF083E796E19583848397838683918780878E
S1132D0093878287158A108E118E148615861686EF
S1132D1017868FEF868B838F0895AF92BF92CF92E1
S1132D20DF92EF92FF920F931F93CF93DF93EC0107
S1132D305B016A017901D9DFBD82AC82DF82CE8278
S1132D40F986E8861B870A87CE01DF91CF911F9110
S1132D500F91FF90EF90DF90CF90BF90AF90D9CEBE
S1132D60A1E21A2EAA1BBB1BFD010DC0AA1FBB1F8B
S1132D70EE1FFF1FA217B307E407F50720F0A21BFD
S1132D80B30BE40BF50B661F771F881F991F1A946A
S1132D9069F760957095809590959B01AC01BD0194
S1132DA0CF010895EE0FFF1F0590F491E02D0994D3
S1132DB0A29FB001B39FC001A39F700D811D112478
S1132DC0911DB29F700D811D1124911D0895DC0188
S1132DD001C06D9341505040E0F70895F894FFCF3F
S1132DE0D09FD180D0B8D0B2D0B5D1822100841385
S1132DF07A134C130001641401060C4B00093D00C6
S1132E000004C8C8100400007A00200015AEFF15A5
S1132E10AFFF15C015A015A415A9FF15C015A11560
S1072E20A415A9FF49
S9030000FC
